:100000000C941F060C9468060C9468060C94680601
:100010000C9468060C9468060C9468060C946806A8
:100020000C9468060C9468060C94DE270C94B62891
:100030000C9448220C9468060C9468060C9468068C
:100040000C9468060C9468060C9468060C94680678
:100050000C9468060C949F220C9468060C94260756
:100060000C9468060C9468060C9468060C94680658
:100070000C9468060C9468060C9468060C94680648
:100080000C9468060C9468060C9468060C94680638
:100090000C9468060C946806290000003A003B00A6
:1000A0003C003D003E003F00400041004200430054
:1000B00044004500460047004800000000000000E2
:1000C0000000000035001E001F002000210022005B
:1000D000230024002500260027002D002E002A00E2
:1000E00049004A004B0053005400550056000000E0
:1000F0002B0014001A000800150017001C0018003F
:100100000C00120013002F00300028004C004D009E
:100110004E005F00600061005700000039000400DD
:100120001600070009000A000B000D000E000F006A
:1001300033003400320000000000000000005C00CA
:100140005D005E0000000000E10064001D001B0077
:1001500006001900050011001000360037003800B5
:10016000E500000000005200000059005A005B004A
:1001700058000000E000E300E20000000000000082
:100180002C00000000000000E600E7006500E4002D
:10019000500051004F0062000000630000000000AA
:1001A00044454255473A2064697361626C65642E28
:1001B0000A0044454255473A20656E61626C6564A9
:1001C0002E0A000A002530313662003A2000253020
:1001D0003258000A722F63203031323334353637CB
:1001E00038394142434445460A006D6B5F77686584
:1001F000656C5F74696D655F746F5F6D6178203DDC
:100200002025640A006D6B5F776865656C5F6D61C2
:10021000785F7370656564203D2025640A006D6B0E
:100220005F74696D655F746F5F6D6178203D202537
:10023000640A006D6B5F6D61785F73706565642043
:100240003D2025640A006D6B5F696E74657276618E
:100250006C203D2025640A006D6B5F64656C6179DC
:10026000203D2025640A006D6B5F776865656C5FD3
:1002700074696D655F746F5F6D6178203D202564E2
:100280000A006D6B5F776865656C5F6D61785F73A1
:1002900070656564203D2025640A006D6B5F74699C
:1002A0006D655F746F5F6D6178203D2025640A0085
:1002B0006D6B5F6D61785F7370656564203D2025AF
:1002C000640A006D6B5F696E74657276616C203DC7
:1002D0002025640A006D6B5F64656C6179203D20A8
:1002E00025640A000A00257500363A20776865659E
:1002F0006C5F74696D655F746F5F6D61783A200043
:100300000A00257500353A20776865656C5F6D6178
:10031000785F73706565643A20000A0025750034C3
:100320003A2074696D655F746F5F6D61783A200083
:100330000A00257500333A206D61785F737065653A
:10034000643A20000A00257500323A20696E74650F
:100350007276616C286D73293A20000A00257500B9
:10036000313A2064656C6179282A31306D73293AFD
:1003700020000A092D2056616C756573202D0A0036
:100380004D3E004D25643E20003F0073657420649F
:10039000656661756C740A00433E2000776865727B
:1003A000652064656C74613A20637572736F723D89
:1003B00025642C20776865656C3D25640A53656566
:1003C00020687474703A2F2F656E2E77696B697090
:1003D000656469612E6F72672F77696B692F4D6F46
:1003E0007573655F6B6579730A000A092D204D6F7F
:1003F0007573656B6579202D0A4553432F713A0952
:10040000717569740A313A0964656C6179282A3119
:10041000306D73290A323A09696E74657276616CBF
:10042000286D73290A333A096D61785F73706565C9
:10043000640A343A0974696D655F746F5F6D617841
:100440000A353A09776865656C5F6D61785F73702E
:100450006565640A363A09776865656C5F74696D2D
:10046000655F746F5F6D61780A0A703A097072692E
:100470006E742076616C7565730A643A09736574ED
:100480002064656661756C74730A75703A092B3166
:100490000A646F776E3A092D310A706775703A09F0
:1004A0002B31300A7067646F776E3A092D31300A4C
:1004B0000A7370656564203D2064656C7461202A50
:1004C000206D61785F7370656564202A20287265ED
:1004D00070656174202F2074696D655F746F5F6D46
:1004E0006178290A003F004D3E2000433E20004C29
:1004F00025640A0074696D65725F726561643332E8
:1005000028293A202530346C580A006B6579626FCF
:100510006172645F69646C653A2025580A006B65F6
:1005200079626F6172645F70726F746F636F6C3A3F
:100530002025580A00686F73745F6B6579626F617C
:1005400072645F6C65647328293A2025580A000A92
:10055000092D20537461747573202D0A004743439D
:100560003A20382E342E30204156522D4C494243E9
:100570003A20322E302E30204156525F41524348AD
:100580003A2061767235310A004F5054494F4E532C
:100590003A204C554641204D4F5553454B45592027
:1005A00045585452414B455920434F4E534F4C45AB
:1005B00020434F4D4D414E4420383139320A0042DC
:1005C00055494C443A202028536570203139203257
:1005D000303231290A005649443A203078464545A0
:1005E0004428254D414E55464143545552455225C8
:1005F00029205049443A2030783030303028613258
:100600003030305365726F74696E612920564552DF
:100610003A203078303030310A000A092D205665F2
:100620007273696F6E202D0A000A092D20436F6EC8
:10063000736F6C65202D0A4553432F713A0971750C
:1006400069740A6D3A096D6F7573656B65790A0097
:100650000A092D204D61676963202D0A443A094437
:1006600065627567204D65737361676520546F67B8
:10067000676C650A583A094D61747269782044655F
:10068000627567204D6F646520546F67676C6520E5
:100690002D2053686F77206B657970726573736571
:1006A0007320696E206D6174726978206772696465
:1006B0000A4B3A094B6579626F6172642044656246
:1006C000756720546F67676C65202D2053686F77BE
:1006D000206B65797072657373207265706F7274C8
:1006E0000A4D3A094465627567204D6F7573652040
:1006F000546F67676C650A563A0956657273696F7D
:100700006E0A533A095374617475730A433A094186
:100710006374697661746520436F6E736F6C6520D6
:100720004D6F64650A46312D4631303A0953776979
:1007300074636820746F204C6179657220302D39A4
:100740002028463130203D204C30290A302D393ABE
:100750000953776974636820746F204C61796572FE
:1007600020302D390A47524156453A09537769746A
:10077000636820746F204C61796572203020286195
:100780006C7465726E617465290A423A094A756D26
:100790007020746F20426F6F746C6F616465720AB1
:1007A0004553433A094A756D7020746F20426F6F4C
:1007B000746C6F616465722028616C7465726E611F
:1007C0007465290A453A095072696E74204545508E
:1007D000524F4D2053657474696E67730A425350CB
:1007E0004143453A09436C65617220454550524F7B
:1007F0004D0A000A002575002E6E6B726F3A2000BC
:100800000A002575002E737761705F6261636B73F8
:100810006C6173685F6261636B73706163653A20DA
:10082000000A002575002E737761705F677261762C
:10083000655F6573633A20000A002575002E6E6FB0
:100840005F6775693A20000A002575002E7377618D
:10085000705F72616C745F726775693A20000A009C
:100860002575002E737761705F6C616C745F6C67C7
:1008700075693A20000A002575002E737761705F54
:100880007263746C5F726775693A20000A0025759F
:10089000002E737761705F6C63746C5F6C67756951
:1008A0003A20000A002575002E636170736C6F6337
:1008B0006B5F746F5F636F6E74726F6C3A20000AC7
:1008C000002575002E737761705F636F6E74726FB1
:1008D0006C5F636170736C6F636B3A20000A002574
:1008E000303258006B65796D61705F636F6E666959
:1008F000672E7261773A20000A002575002E6D6F11
:100900007573653A20000A002575002E6B657962C3
:100910006F6172643A20000A002575002E6D6174C3
:100920007269783A20000A002575002E656E6162B2
:100930006C653A20000A0025303258006465627503
:10094000675F636F6E6669672E7261773A20000A8F
:100950000025750064656661756C745F6C6179650E
:10096000723A20003F000A6D6F7573653A206F661A
:10097000660A000A6D6F7573653A206F6E0A000A89
:100980006B6579626F6172643A206F66660A000A6D
:100990006B6579626F6172643A206F6E0A000A6D4E
:1009A00061747269783A206F66660A000A6D617434
:1009B0007269783A206F6E0A000A64656275673A58
:1009C000206F66660A000A64656275673A206F6E7A
:1009D0000A000A0A4A756D70696E6720746F20629A
:1009E0006F6F746C6F616465722E2E2E2000433E13
:1009F0002000436C656172696E6720454550524F17
:100A00004D0A006565636F6E6669673A0A00290AD8
:100A1000002575002F002575005D28002564002045
:100A200000256400200025640020002564007C006F
:100A300025303258006D6F7573656B6579205B6288
:100A4000746E7C782079207620685D287265702F1E
:100A500061636C293A205B000A002530325820007F
:100A60006B6579626F6172645F7265706F72743A00
:100A700020000A0025303258006B6579626F617280
:100A8000645F7365745F6C65643A20004B657962DE
:100A90006F6172642073746172742E0A005B575D1B
:100AA000005B535D005B525D005B445D005B435D3A
:100AB000001C03610032003000300030005300653C
:100AC0000072006F00740069006E00610000001E7B
:100AD0000325004D0041004E0055004600410043F3
:100AE000005400550052004500520025000000044B
:100AF00003090409025B00030100A0FA09040000D5
:100B00000103010100092111010001224000070534
:100B1000810308000A090401000103000000092103
:100B200011010001227B000705820320000A09044D
:100B3000020002030000000921110100012222002D
:100B400007058303200001070503032000011201AC
:100B5000100100000008EDFE00000100010200018C
:100B60000631FF0974A1010975150026FF009520C3
:100B7000750881020976150026FF009520750891F9
:100B800002C005010902A10185020901A1000509B0
:100B90001901290815002501950875018102050133
:100BA000093009311581257F9502750881060938BC
:100BB0001581257F950175088106050C0A380215F7
:100BC00081257F950175088106C0C005010980A1B6
:100BD00001850319012AB700150126B70095017593
:100BE000108100C0050C0901A101850419012AA08A
:100BF00002150126A002950175108100C0050109AA
:100C000006A101050719E029E715002501950875DA
:100C10000181029501750881010507190029FF1559
:100C20000026FF00950675088100050819012905B1
:100C3000950575019102950175039101C00011247C
:100C40001FBECFEFD0E2DEBFCDBF04B603FE27C08C
:100C50008091E0029091E102A091E202B091E30262
:100C60008730904BA740B04BD1F41092E002109225
:100C7000E1021092E2021092E30214BE84B7877F71
:100C800084BF0FB6F894A895809160008861809326
:100C90006000109260000FBEE0E0F0EF099511E0F7
:100CA000A0E0B1E0E8E2F6E500E00BBF02C007908B
:100CB0000D92A83AB107D9F722E0A8EAB1E001C045
:100CC0001D92A03EB207E1F70E9443250C94EA2A48
:100CD0000C940000FF93EF93E091A801F091A9011B
:100CE000309709F00995EF91FF910895FC018591E6
:100CF000803011F0EFDFFBCF0895FF27E0E230E214
:100D000047FF0CC0419597FF09C0EDE260957095D3
:100D100080959095611D711D811D911D27FF02C059
:100D2000219530E350E2AA27660F771F881F991F8D
:100D3000AA1FA41710F0A41B63955A95A9F7AA300F
:100D400008F0A95FA05DAF93F3956115710581056A
:100D5000910541F7ED3211F4EF93F395F21718F482
:100D60003F93F395FBCF8F91B5DFFA95E1F70895A7
:100D7000E991F9918591803021F0853219F0AADF4F
:100D8000F9CF089520E0E89455915532C1F35033DE
:100D900011F4689455915A3348F4505390F3220F4C
:100DA000022E220F220F200D250FF4CF0EF42195D5
:100DB00089919991533619F3533729F1533559F1E4
:100DC000BC0188279927E8945C3621F48991999190
:100DD00068945591543639F446EF7EF077FF0DC094
:100DE0008FEF9FEF0AC055374AE039F0583540E1A0
:100DF00021F0523642E009F00895FF93EF937DDF32
:100E0000EF91FF91B7CFFF93EF93FC018191803079
:100E1000B9F360DFFBCFFF93EF9368DFF1CFDF9390
:100E2000CF93CDB7DEB72596A3DFCF91DF9108959D
:100E3000E4E6F0E080818F7D808314BC84E085BD92
:100E4000EEE6F0E080818160808308951F921FB6F6
:100E50001F9211248F939F93AF93BF938091AA0108
:100E60009091AB01A091AC01B091AD010196A11D93
:100E7000B11D8093AA019093AB01A093AC01B093F4
:100E8000AD01BF91AF919F918F911F901FBE1F9099
:100E900018958B9A8C9A8D9A709A719A2F9A5D9A5E
:100EA0005E9A5F9A2FEF83ED90E32150804090404F
:100EB000E1F700C000008B988C988D98709871981D
:100EC0002F985D985E985F980895839A849A859A82
:100ED000869A689A699A279A579A8E9A0E94180752
:100EE0000C94490781E00895089581E008950C94D9
:100EF000720708950C9479071F93CF93DF9300D066
:100F000000D00F92CDB7DEB749835A836B833091FF
:100F1000EB0189819A8131111DC06623B9F022232A
:100F2000A9F00E94F51F182F682F89819A810E94CD
:100F3000A11F69817A81812F0F900F900F900F90E0
:100F40000F90DF91CF911F910C9487080E94CD1FC5
:100F5000182FEFCF0E94F51F69817A81EDCFFC0138
:100F6000262F408151816281738184810C947C079A
:100F7000CF93DF93EC0160E00E94AF07BE01DF91E9
:100F8000CF910C947A070E94EE220E943F2181119A
:100F900002C00E94E3210E9474080C94920A0C94EF
:100FA000950A08950E940B1B0E94D1072FEF84E33E
:100FB0009CE0215080409040E1F700C000000C947C
:100FC000C3220F931F93CF93DF93EC0161E00E9444
:100FD000AF078C01BE010E947707882311F1BE0183
:100FE000C8010E946E148823E1F0BE01C8010E946E
:100FF000C0148823B1F0BE01C8010E94E315882304
:1010000081F08A81882341F101308CE5180779F05D
:101010000F3D8CE51807E9F001151C45E9F40E9425
:10102000D20780E0DF91CF911F910F9108959091A9
:101030008E02892F8E7F90FF816080938E0280FFC9
:1010400005C082EB91E00E947606EBCF80EA91E04A
:10105000FACF0E94E321E5CFCE01DF91CF911F911E
:101060000F910C947507829590E09C01220F331F1D
:10107000220F331F2C7C95958795959587958373C3
:10108000282B30E0C901880F991F8A7A359527955A
:101090002575822B0895CF93DF93D92F0E943308B3
:1010A000C82F8D2F0E9433089C2FDF91CF91089578
:1010B00008950C94580881E00895CF93C82F0E949A
:1010C0005B08882349F0C0FF09C05D9AC1FF08C0D2
:1010D0005F9AC2FF07C05E9ACF9108955D98F6CFE0
:1010E0005F98F7CF5E98F8CF559A5D98579A5F98BA
:1010F000569A5E980895CF93C82F0E9459088C2F56
:10110000CF910C945D0890E080E008950895972FAA
:1011100070E02BE0929F600D711D1124FB0194E89B
:10112000899FE00DF11D1124EE0FFF1FE856FF4FC0
:10113000859194910895FC01EE0FFF1FED53FE4F32
:10114000859194910895CF93DF930E9487080E9420
:10115000B809EC01811520E5920708F042C081151D
:1011600030E4930708F0BDC0883E910528F5803E25
:10117000910508F09DC0883A910588F4853A91055B
:1011800008F08FC08130910509F492C0009709F4EE
:101190008FC0049708F08CC0D0E0C0E089C08F3BBE
:1011A000910508F489C0805C9109C03CD105A0F389
:1011B0000E949B08EC017CC08115904250F4C1153F
:1011C00081E0D80708F074C0CD3ED10528F3D06582
:1011D0006FC0C11590E3D90708F079C0CE019F70A8
:1011E000E7CF811525E5920758F5811534E593077A
:1011F00008F0A6C0811542E5940750F4C11581E5B9
:10120000D80708F471C0DC2FCC27C16FD06A50C05A
:10121000982F969596959E0123703327C115D34537
:1012200008F07FC0C1E0D0E002C0CC0FDD1F2A95DE
:10123000E2F720E2929FC0011124C82BD92B6FC086
:10124000C11589E5D807A8F4C11598E5D90708F0B4
:101250007CC0C11526E5D20708F09ECF8C2F0E94D6
:101260004F0AC82FD0E0DC2FCC27CC27DF71D0620B
:101270001FC0C1153AE5D30708F46CC0CE019056E3
:101280008115904208F088CF8D2F8F710E944F0AF0
:1012900090E0982F882788279F719C012C2BE901CB
:1012A000E6CFC55AD0E0CD5BDE4FC881D0E0D06438
:1012B000CE01DF91CF910895C85AD0E0CC0FDD1F49
:1012C000CB5EDE4F0990D881C02DD464F1CFCE0122
:1012D0009927D3FF03C0EC01D86CEACFEC01D06CA6
:1012E000E7CFDF70D06AE4CFCE01E4E09695879532
:1012F000EA95E1F783702C2F26952695237090E2CE
:10130000299F90011124382B8C2F8370C1E0D0E0ED
:1013100002C0CC0FDD1F8A95E2F7C22BD32BDC680D
:10132000C7CFC1E0D0E002C0CC0FDD1F2A95E2F7A5
:1013300030E2939FC0011124C82BD92BDA68B8CFB3
:10134000D82FCC27C46FD06AB3CFDC2FCC27C06F87
:10135000D06AAECF8C2F8F700E944F0A34E0D695A2
:10136000C7953A95E1F7CF709C2FEC01D069A0CFDB
:1013700082389105B1F1B0F48133910509F475C05B
:1013800048F48932910509F469C08A32910509F45B
:1013900073C008958533910509F459C089339105C7
:1013A00001F10895833E9105A9F138F4803E91053D
:1013B000F9F0823E910549F10895863E9105A9F123
:1013C000873E9105C9F1843E910519F52091D2021D
:1013D00021FF1FC08091D10284FD14C087EE90E0F0
:1013E00008952091D1022370A1F080EE90E008953D
:1013F0002091D10220FD47C03091D20230FF09C0B8
:1014000024FF44C090E080E004C02091D10222FD7E
:10141000F7CF08952091D10222FD3BC03091D20236
:1014200030FDE3CF24FFF5CFEDCF2091D10223FF94
:10143000F0CF24FDE7CFD2CF2091D10223FD2CC0E5
:101440003091D20231FFEECF84EE90E008952091EA
:10145000D10225FFDECF89E290E008952091D102EC
:1014600025FFD7CF85E390E008952091D10226FF94
:10147000D0CF8AE290E008952091D10226FFC9CF13
:1014800081E390E0089589E390E0089583EE90E091
:10149000089582EE90E0089586EE90E00895909190
:1014A000D10292FF06C0282F28712830F9F4877FD7
:1014B000846093FF06C0282F28712831F1F4877EBD
:1014C00084612091D20220FF06C0382F3871383055
:1014D000D9F4877F816021FF06C0282F2871283129
:1014E000D1F4877E816194FD877E0895282F247131
:1014F0002430F9F68B7F8860DCCF282F24712431CB
:1015000001F78B7E8861DDCF382F3171313019F7CB
:101510008E7F8860E0CF282F2171213121F78E7EC8
:101520008861E1CF0C94650708950C94940AE82F24
:10153000F0E0EE0FFF1FEB54FD4F80819181089585
:10154000CF92DF92EF92FF920F931F93CF93DF938F
:1015500083ED91E00E94760685EBE82E82E0F82E7E
:10156000D0E0C0E09EECC92E91E0D92E05EC11E050
:10157000DF93CF93DF92CF920E940F078BEC91E025
:101580000E947606F701819191917F010E944B089C
:101590009F938F931F930F930E940F0783EC91E00B
:1015A0000E94760621968DB79EB708960FB6F894DE
:1015B0009EBF0FBE8DBFCC30D105D1F6DF91CF914C
:1015C0001F910F91FF90EF90DF90CF90089580EAE8
:1015D0008A95F1F7089500C008950C94E70AF894ED
:1015E000E82FE295EF70F0E031A1282F2F7081E015
:1015F00090E001C0880F2A95EAF7982F90959323E1
:1016000091A392A1892B82A378940895CF93DF931D
:10161000C1E5D1E089910E94EF0A81E0CD35D8077C
:10162000C9F7C6E4D1E089910E94EF0A81E0C13593
:10163000D807C9F7EDE9F2E0A5EBB2E011921192FB
:101640001D921D9282E0E53BF807C1F78CE00E94F5
:10165000B10BDF91CF910C94C307AF92BF92CF92A1
:10166000DF92EF92FF920F931F93CF93DF9301E5E9
:1016700011E0CDE9D2E0C12CD12CEE24E394F12C81
:10168000F80181918F01F894E82FE295EF70F0E076
:1016900021A18F70A70102C0440F551F8A95E2F760
:1016A000CA01922F982B91A392A18095892382A39E
:1016B00078940E94EB0AE6E4F1E030E020E0B12CFF
:1016C000A12C4191A42FA295AF70B0E090968C917F
:1016D00090E04F7002C0959587954A95E2F780FD9E
:1016E0003BC0C701022E02C0880F991F0A94E2F77F
:1016F000A82AB92A2F5F3F4F2B30310511F7F80187
:10170000319780810E94EF0A5BE0C5120E94ED0ACA
:1017100088819981A816B90611F1B982A88281E061
:10172000D82AC39422968CE0C812AACF2D2D4CE063
:1017300065EB72E08DE992E00E94B20B0E94CF0748
:101740008D2DDF91CF911F910F91FF90EF90DF9042
:10175000CF90BF90AF90089590E080E0C9CF80E037
:10176000DFCF0895FF920F931F93CF93DF93F82E4F
:10177000092F162FD72FC42F222349F081E0809301
:10178000B0010E9478229093AF018093AE018091C6
:10179000B0018823A1F08091AE019091AF010E9429
:1017A0009022069760F0EF2DF02FA12FBD2F90E033
:1017B00080E0D0E08C179D0744F01092B001DF91DB
:1017C000CF911F910F91FF900895219131912D9309
:1017D0003D930196EFCF8AEE93E00E9476061F922A
:1017E00081E08F931F9285E08F938CE993E09F9324
:1017F0008F930E940F070F900F900F900F900F90F4
:101800000F900895833009F445C028F4813061F0C9
:10181000823049F10895853009F46AC008F451C056
:10182000863009F47CC0089580910701482F460F47
:101830005527551F4F3F510594F4680F60930701DA
:10184000809107011F928F9385ED92E09F938F9374
:101850000E940F070F900F900F900F9008958FEF39
:1018600080930701EDCF80910601482F460F552741
:10187000551F4F3F510554F4680F60930601809146
:1018800006011F928F9383EC92E0E0CF8FEF80935D
:101890000601F5CF80910501482F460F5527551FAA
:1018A0004F3F510554F4680F609305018091050185
:1018B0001F928F9380EB92E0C9CF8FEF8093050149
:1018C000F5CF80910401482F460F5527551F4F3FF4
:1018D000510554F4680F60930401809104011F9234
:1018E0008F938BE992E0B2CF8FEF80930401F5CF15
:1018F00080910101482F460F5527551F4F3F510535
:1019000054F4680F60930101809101011F928F933D
:1019100082E892E09BCF8FEF80930101F5CF809119
:101920000001482F460F5527551F4F3F510554F4CE
:10193000680F60930001809100011F928F9387E6EA
:1019400092E084CF8FEF80930001F5CF8330C9F10F
:1019500028F4813061F0823019F10895853009F45E
:1019600052C008F43FC0863009F45EC008958091EB
:101970000701681790F4861B809307018091070187
:101980001F928F9388E592E09F938F930E940F0799
:101990000F900F900F900F90089510920701EECFC7
:1019A00080910601681750F4861B80930601809190
:1019B00006011F928F9386E492E0E6CF1092060113
:1019C000F6CF80910501681750F4861B80930501BE
:1019D000809105011F928F9383E392E0D5CF1092FF
:1019E0000501F6CF80910401681750F4861B80939F
:1019F0000401809104011F928F938EE192E0C4CF85
:101A000010920401F6CF80910101681750F4861BF3
:101A100080930101809101011F928F9385E092E0F4
:101A2000B3CF10920101F6CF80910001681750F4F6
:101A3000861B80930001809100011F928F938AEE94
:101A400091E0A2CF10920001F6CFCF93C82F1F9242
:101A50008F938FEE94E09F938F930E940F0761E026
:101A600070E080E090E004C0660F771F881F991F28
:101A7000CA95D2F70E94A31E0F900F900F900F905F
:101A8000CF910C940B1BCF93DF938B3109F4FAC1E8
:101A900008F09CC18B3009F4B8C108F06AC18630E7
:101AA00009F4C6C148F4853009F49EC184E699E082
:101AB0000E94760680E0CCC1873009F4CCC1883022
:101AC000A9F783E09AE00E94760684E599E00E94F7
:101AD00076060E944E211F928F9381E599E09F9395
:101AE0008F930E940F078FE499E00E9476060E9470
:101AF0004A21C82F8CE399E00E9476061F92CF936B
:101B000087E399E09F938F930E940F0785E399E005
:101B10000E9476068BE299E00E9476068C2F8170F7
:101B20001F928F9388E299E09F938F930E940F07F3
:101B300086E299E00E9476068CE199E00E947606A2
:101B4000C1FB882780F91F928F9389E199E09F93C9
:101B50008F930E940F0787E199E00E9476068BE041
:101B600099E00E947606C2FB882780F91F928F9326
:101B700088E099E09F938F930E940F0786E099E099
:101B80000E9476068DEF98E00E947606C3FBCC2774
:101B9000C0F91F92CF938AEF98E09F938F930E9492
:101BA0000F0788EF98E00E9476060E945221EC0110
:101BB00084EE98E00E947606DF93CF938FED98E055
:101BC0009F938F930E940F078DED98E00E947606F9
:101BD00084EC98E00E9476068C2F81701F928F9380
:101BE00081EC98E09F938F930E940F078DB79EB76B
:101BF00080960FB6F8949EBF0FBE8DBF8FEB98E016
:101C00000E94760688EA98E00E947606C1FB882743
:101C100080F91F928F9385EA98E09F938F930E949B
:101C20000F0783EA98E00E94760681E998E00E9417
:101C300076068D2F81701F928F938EE898E09F9388
:101C40008F930E940F078CE898E00E9476068AE73F
:101C500098E00E947606D695D1701F92DF9387E7B1
:101C600098E09F938F930E940F0785E798E00E946A
:101C7000760683E698E00E947606C2FB882780F904
:101C80001F928F9380E698E09F938F930E940F0797
:101C90008EE598E00E9476068CE498E00E94760635
:101CA000C3FB882780F91F928F9389E498E09F9364
:101CB0008F930E940F0787E498E00E9476068DE3D9
:101CC00098E00E947606C4FB882780F91F928F93C4
:101CD0008AE398E09F938F930E940F0788E398E030
:101CE0000E94760686E298E00E947606C5FB882769
:101CF00080F91F928F9383E298E09F938F930E94C5
:101D00000F0781E298E00E94760685E098E00E9445
:101D10007606C6FB882780F91F928F9382E098E0B1
:101D20009F938F930E940F078DB79EB780960FB633
:101D3000F8949EBF0FBE8DBF80E098E00E947606AB
:101D400088EF97E00E947606C7FBCC27C0F91F9268
:101D5000CF9385EF97E09F938F930E940F0783EFB8
:101D600097E00E9476060F900F900F900F9081E001
:101D70006FC0803109F49EC080F48E3009F096CE99
:101D800090918E02892F8B7F92FF846080938E02C8
:101D900082FF8DC08FE899E081C0863109F49AC036
:101DA000893109F083CE8AE196E00E94760686EDBD
:101DB00095E00E9476068FEB95E00E94760689E812
:101DC00095E00E9476068DE595E021C08A3249F1C2
:101DD00090F4873211F128F48E3108F467CE8D51DA
:101DE0001DC0893209F062CE82ED99E00E9476062C
:101DF0000E94D207BCCF833468F48A3308F0A1C0B4
:101E0000853359F0883309F051CE80E596E00E9481
:101E10007606ADCF833409F049CE80E00E94250DCF
:101E2000A6CF82EF99E00E9476060E94E3219FCF21
:101E300080918E02807F80938E0289E296E00E94DC
:101E400076068EEE99E00E94760681E08093B201DC
:101E5000DF91CF91089590918E02892F8E7F90FF10
:101E6000816080938E0280FF03C086EC99E0CFCF23
:101E700089EB99E00E94760680918E02817F8093A3
:101E80008E0275CF90918E02892F8D7F91FF826097
:101E900080938E0281FF08C08CEA99E00E9476064A
:101EA00080918E028160EBCF8EE999E0B0CF8FE711
:101EB00099E0ADCF90918E02892F877F93FF886044
:101EC00080938E0283FF03C083E799E0E7CF86E625
:101ED00099E09DCF8FE495E00E9476060E9412164D
:101EE0001F928F9385E395E09F938F930E940F0736
:101EF000809114011F928F938EE195E09F938F93B1
:101F00000E940F0780919C021F928F938BE095E0B7
:101F10009F938F930E940F070E9484229F938F9319
:101F20007F936F9384EF94E09F938F930E940F07AA
:101F30008DB79EB742960FB6F8949EBF0FBE8DBF69
:101F400016CF89536BCF80E008950C94A30F8E5168
:101F50008A3030F4E82FF0E0E35AFE4F8081089594
:101F600080E00895CF93C82F8091B2018130C1F0F5
:101F7000882339F0823009F447C01092B20180E022
:101F80000DC00E948A208232D1F78C2F0E94A30FAD
:101F900081111BC08C2F0E94430D8170CF91089539
:101FA0000E948A20823289F38C2F0E94A50F811112
:101FB0001BC0C431D9F060F4CB3071F0C031D1F026
:101FC00085EE94E00E94760613C081E090E0E5CFB4
:101FD000C93261F0C833A1F789E296E00E94760623
:101FE0008BEE94E00E94760681E0D7CF1092B2018A
:101FF00080E0D3CF0E94EB0B87EE94E00E94760640
:1020000082E08093B201F0CFC432C8F4CE3108F040
:10201000BEC0CB30E1F040F4C73009F4CCC089E851
:1020200093E00E94760626C0C331C1F1C431B9F7EE
:102030008091B101882351F11092B1010AC0CB34D3
:1020400009F4B7C0C8F4C93299F3C83341F70E9404
:10205000EB0B8091B101882309F4C4C01F928F93C8
:1020600083E893E09F938F930E940F070F900F9048
:102070000F900F9081E092CFC13509F494C0C23522
:1020800009F48BC0CE3459F66AE08EC088E993E03B
:102090000E94760681E08093B20180CF82E793E0D0
:1020A0000E94760680E693E00E9476068091070102
:1020B0001F928F938DE593E09F938F930E940F075C
:1020C0008BE593E00E94760689E493E00E94760611
:1020D000809106011F928F9386E493E09F938F93E4
:1020E0000E940F0784E493E00E94760685E393E064
:1020F0000E947606809105011F928F9382E393E000
:102100009F938F930E940F0780E393E00E947606CF
:102110008FE193E00E947606809104011F928F93D5
:102120008CE193E09F938F930E940F078AE193E0E5
:102130000E94760685E093E00E9476068091010178
:102140001F928F9382E093E09F938F930E940F07DB
:1021500080E093E00E94760689EE92E00E94760687
:10216000809100011F928F9386EE92E09F938F9350
:102170000E940F0784EE92E00E9476068DB79EB70C
:1021800048960FB6F8949EBF0FBE8DBF62CF8C2FBE
:102190000E94A70F8093B1015CCF61E08091B101F3
:1021A0000E94020C56CF61E08091B1010E94A60C02
:1021B00050CF6AE0F3CF8EE18093070182E38093F2
:1021C00006018AE08093050184E18093040188E0A0
:1021D0008093010188E2809300018BE893E00E94E4
:1021E000760637CF80E893E01CCF8091B90180FF5D
:1021F00012C06091050185E0689FB00111247595BA
:1022000067957595679560387105A8F56115710535
:10221000A1F1862F089581FF09C06091050185E035
:10222000689FB001112475956795EDCF6091050108
:1022300082FD0AC08091B8018823D1F090910401F9
:1022400060910501891728F085E0689FB00111248D
:10225000DACF869FB001112485E0869F9001879F89
:10226000300D1124692F70E0C9010E94772ACBCF6D
:1022700065E070E0CECF8FE7089581E0089580910A
:10228000B90180FF0CC06091010170E07595679500
:10229000759567956115710549F1862F089581FF40
:1022A00006C06091010170E075956795F3CF60916C
:1022B000010182FD0BC09091B7019923A1F06091BB
:1022C000000180910101961738F0682F70E06038A6
:1022D000710500F38FE70895899FC001112470E014
:1022E0000E94772AF4CF61E070E0D7CF81E00895B3
:1022F0008D3E31F40E94F51081958093BD010895C3
:102300008E3E19F40E94F510F8CF8F3E31F40E94F2
:10231000F51081958093BC010895803F19F40E94C7
:10232000F510F8CF893F29F40E943F118093BE0138
:1023300008958A3F21F40E943F118195F7CF8B3F8A
:1023400031F40E943F1181958093BF0108958C3F25
:1023500019F40E943F11F8CF9FE0980F983070F465
:10236000815F990B21E030E001C0220F8A95EAF7E6
:102370008091BB01822B8093BB0108958D3F31F486
:102380008091B90181608093B90108958E3F21F455
:102390008091B9018260F7CF8F3FB9F78091B90181
:1023A0008460F1CF4091BC018D3E59F48091BD0114
:1023B00087FF0DC01092BD0141110BC01092B801F2
:1023C00008C08E3E81F48091BD0118169CF3442311
:1023D00081F08091BE019091BF01892B09F05AC014
:1023E0001092B70108958F3E49F447FFF0CF109245
:1023F000BC018091BD018111ECCFE0CF803F19F489
:102400001416ACF3E4CF9091BE01893F29F419165C
:10241000F4F61092BE01DBCF8A3F19F497FFD7CFB5
:10242000F8CF9091BF018B3F29F497FFD0CF109246
:10243000BF01CDCF8C3F19F41916CCF3C8CF9FE064
:10244000980F983090F4815F990B21E030E0B9014A
:1024500002C0660F771F8A95E2F7CB0180959091B5
:10246000BB0189238093BB01B2CF8D3F31F48091B2
:10247000B9018E7F8093B901AACF8E3F21F480915C
:10248000B9018D7FF7CF8F3F09F0A1CF8091B901BE
:102490008B7FF0CF089580918E0283FF7EC085E30D
:1024A0009AE00E9476068091BB011F928F9380E391
:1024B0009AE09F938F930E940F078EE29AE00E940A
:1024C00076068091BC01282F082E000C330B3F9319
:1024D0008F938BE29AE09F938F930E940F0789E27C
:1024E0009AE00E9476068091BD01282F082E000CEC
:1024F000330B3F938F9386E29AE09F938F930E94D2
:102500000F0784E29AE00E9476068091BE01282F90
:10251000082E000C330B3F938F9381E29AE09F9338
:102520008F930E940F078FE19AE00E9476068091B8
:10253000BF01282F082E000C330B3F938F938CE1A3
:102540009AE09F938F930E940F0789E19AE00E947F
:1025500076068091B8011F928F9386E19AE09F934F
:102560008F930E940F0784E19AE00E947606809183
:10257000B9011F928F9381E19AE09F938F930E94FC
:102580000F078EE09AE00E9476068DB79EB74C96B4
:102590000FB6F8949EBF0FBE8DBF0E9478229C019B
:1025A0009091BC018091BD01982B21F03093B60130
:1025B0002093B5019091BE018091BF01982B21F02D
:1025C0003093B4012093B3018AEB91E00C946A1626
:1025D000EF92FF920F931F93CF93DF9300D000D021
:1025E00000D0CDB7DEB786E0EAEBF1E0DE01119670
:1025F00001900D928A95E1F7E090BC01F090BD0149
:102600000091BE011091BF011092BC011092BD015A
:102610001092BE011092BF018E2D8F2991F08091F2
:10262000B5019091B6010E949022AC019091B80141
:10263000992309F43FC0809106018417150608F418
:1026400047C0802F812B91F08091B3019091B4010C
:102650000E949022AC019091B701992309F477C0B0
:10266000809102018417150608F47FC08091BC0197
:102670009091BD01892B9091BE01892B9091BF0152
:10268000892B11F00E944B1286E0FE013196AAEBD5
:10269000B1E001900D928A95E1F726960FB6F89475
:1026A000DEBF0FBECDBFDF91CF911F910F91FF9085
:1026B000EF900895209107018AE0289F900111244E
:1026C0002417350708F0BDCF9F5F9093B80102C073
:1026D0009F3FD1F7EE2059F00E94F5109FEF1E1496
:1026E0000CF491E0899F802D11248093BC01FF2080
:1026F00059F00E94F5109FEF1F140CF491E0899F90
:10270000802D11248093BD013091BC01332309F445
:1027100098CF2091BD01222309F493CF45EB3403D8
:10272000C0011124992359F09093BC0145EB240377
:1027300090011124332339F03093BD0182CF81E021
:102740008093BC01F3CF81E08093BD017ACF2091CB
:1027500003018AE0289F900111242417350708F00F
:1027600085CF9F5F9093B70102C09F3FD1F70023B1
:1027700059F00E943F119FEF10160CF491E0899FD1
:10278000802D11248093BE01112359F00E943F1126
:102790009FEF11160CF491E0899F802D11248093F6
:1027A000BF013091BE01332309F460CF2091BF01F6
:1027B000222309F45BCF45EB3403C0011124992394
:1027C00059F09093BE0145EB24039001112433236B
:1027D00039F03093BF014ACF81E08093BE01F3CF3F
:1027E00081E08093BF0142CF86E0EAEBF1E0DF01B8
:1027F0001D928A95E9F71092B8011092B7011092D4
:10280000B90108950F931F93CF93DF93C42FD22F55
:10281000FC0182818823C9F04093C2010E94782282
:102820009093C1018093C00180E28C0F883008F042
:1028300050C0C77081E001C0880FCA95EAF7DF91E8
:10284000CF911F910F910C9492181091C201141303
:1028500035C08091C0019091C1010E949022883CB6
:10286000910560F5C0E2CD0F1D17B9F080E2810F30
:10287000883040F4177081E001C0880F1A95EAF79C
:102880000E949918C83048F481E09D2F977001C0CC
:10289000880F9A95EAF70E949218802F0E948A1852
:1028A000C830B8F4D77081E001C0880FDA95EAF734
:1028B000DF91CF911F910F910C94991880E28C0FAA
:1028C000883038F4C77081E001C0880FCA95EAF7F4
:1028D000EFCFDF91CF911F910F9108950F939C013E
:1028E000CB01243F4CE5340759F1A8F4293DFCE520
:1028F0003F0701F12A3D4CE53407D1F1283D3C4525
:1029000091F406E221EE41EE68ED7CE50E940214AE
:1029100080E00F910895263FFCE53F07E9F0B0F015
:10292000273F3C45F9F0FC018281882339F1109260
:10293000C201EFCF07E225EE45EE69ED7CE5E6CF7B
:1029400006E221EE40EE64EF7CE5E0CF07E225EE03
:1029500044EE65EF7CE5DACF06E221EE42EE66EF6B
:102960007CE5D4CF07E225EE46EE67EF7CE5CECFDF
:1029700008E221E045EE6AED7CE5C8CF81E0C9CFF1
:10298000CF93DF93EC01FB018281882309F419C105
:10299000C230FCE5DF07C0F1C6319CE5D90730F055
:1029A0009E012B5F3C452930310570F50E94522174
:1029B0009093D2028093D102C031ECE5DE0709F496
:1029C000CFC008F05BC0C8308CE5D80709F4B6C0AA
:1029D00088F5C430ECE5DE0709F4A8C0C0F4C230C5
:1029E0008CE5D80709F49CC08091D1028260C33085
:1029F000DC4509F498C08091D1029091D2020E94E6
:102A000060210E940B1B80E0DF91CF91089580919F
:102A1000D1028061C630ECE5DE0709F484C0809104
:102A2000D1028860C730DC4508F47DC08091D102B6
:102A3000806279C0CC308CE5D80709F489C070F485
:102A40008091D1028C60CA30ECE5DE0709F46BC0DE
:102A500008F478C08091D1028E7F65C0CE308CE5BD
:102A6000D80709F479C08091D1028B7FCF30DC4543
:102A700008F459C08091D1028F7E55C0CC3FECE55F
:102A8000DE0709F457C030F5C3318CE5D80709F4E7
:102A90006FC078F4C131ECE5DE0709F465C0C231DE
:102AA000DC4509F0A8CF0E940B1B8091D1028F77E3
:102AB0003AC0C5318CE5D80709F462C008F476C085
:102AC0008091D2028160CB3FDC4509F094CF8093A6
:102AD000D20291CFC115FDE5DF0709F44DC088F49E
:102AE0008091D2028D7FCE3F9CE5D90781F3809102
:102AF000D2028E7FCF3FDC4550F38091D2028360BB
:102B0000E6CFC230FDE5DF0709F459C008F444C040
:102B100080E0C330DD4509F06ECF0E94E5216BCF28
:102B20008091D10281608093D10265CF8091D102E2
:102B30008460F9CF8091D2028260C9CF8091D102A6
:102B40008064F1CF0E940B1B8091D1028068EBCF93
:102B50008091D1028D7FE7CF8091D102877FE3CF33
:102B60008091D1028F7DDFCF8091D1028F7BDBCF2F
:102B70008091D102837FD7CF8091D2028C7FA7CF63
:102B80008091D10282FB992790F921E0922790FB56
:102B900082F990FB83F9C7CF8091D202982F90954C
:102BA00091708E7F892B90FB81F991CF0E940B1B36
:102BB0009091D102892F97FB87F98058B4CF81E09B
:102BC000ACCF81E021CFCF93DF93EB0186319C45E1
:102BD00011F50E948A209A81992399F08A7A91E0CE
:102BE00009F490E09093C301811109C089E20E9429
:102BF00065200E94D62080E0DF91CF91089585E383
:102C0000F6CF8091C301811104C089E20E946C203B
:102C1000F0CF85E3FBCF81E0EFCF9093C9018093A4
:102C2000C8010895E091C801F091C901309721F0E1
:102C30000190F081E02D099480E00895EF92FF92D9
:102C40000F931F93CF93DF938C01E091C801F09114
:102C5000C9013097C1F10280F381E02D099580917F
:102C60008E0282FF30C080FF04C080E69AE00E949E
:102C70007606D0E0C0E08AE5E82E8AE0F82E809162
:102C80008E0280FF0EC0F801EC0FFD1F80811F92A5
:102C90008F93FF92EF920E940F070F900F900F906B
:102CA0000F902196C830D10551F780918E0280FF98
:102CB0000AC088E59AE0DF91CF911F910F91FF90B4
:102CC000EF900C947606DF91CF911F910F91FF90BA
:102CD000EF900895E091C801F091C901309739F063
:102CE00022E0DC012C930480F581E02D0994089505
:102CF0002091C6013091C7012817390771F09093D0
:102D0000C7018093C601E091C801F091C9013097D5
:102D100021F00680F781E02D099408952091C401E7
:102D20003091C5012817390771F09093C501809340
:102D3000C401E091C801F091C901309721F00084ED
:102D4000F185E02D099408950E9484226093E701A3
:102D50007093E8018093E9019093EA016093E301A5
:102D60007093E4018093E5019093E601089585B79F
:102D7000806885BF85B7806885BF089508950895E8
:102D80000C94BE1608950C94C2160E94B71681EEDC
:102D900094E20E94E7220E94BF160C94C01681E0C4
:102DA00008950C94CF1608950E946F220E94060B7E
:102DB0000E9405230C94C316CF93C82F80918E02D6
:102DC00082FF1EC080FF1CC089E79AE00E94760641
:102DD00080918E0280FF14C01F92CF9384E79AE007
:102DE0009F938F930E940F0780918E020F900F90F8
:102DF0000F900F9080FF04C082E79AE00E94760651
:102E00008C2FCF910C947B088F929F92AF92BF92A0
:102E1000CF92DF92EF92FF920F931F93CF93DF93A6
:102E2000CDB7DEB72A970FB6F894DEBF0FBECDBF81
:102E30000E94D3160E9474070E942D0B81110E94DC
:102E4000A4165BEC852E51E0952E10E000E0A02E3C
:102E5000802F0E94970A6C01F401E190F1904F01DC
:102E6000E816F90609F45CC080918E0281FD0E948B
:102E7000A00AC7018C259D25B12CEE24E394F12CEA
:102E80009C012E213F21232B09F444C00E94D1161E
:102E90008823A9F0BE82AF82CE20DF2081E0CD283A
:102EA00009F480E088870E9478228160782F9A87D1
:102EB00089874E815F8168858A850E94BA17000FD5
:102EC000111FF801E553FE4F80819181E826F92614
:102ED000F182E0820E94E8120E9412169091CA01CB
:102EE0008917A9F10E9412168093CA012A960FB67B
:102EF000F894DEBF0FBECDBFDF91CF911F910F9130
:102F0000FF90EF90DF90CF90BF90AF909F908F9009
:102F10000C94DC16B394EE0CFF1CFBE0BF12B0CF98
:102F20000F5F1F4F0C30110509F091CF8FEF898390
:102F30008A831B820E9478228160782F9D838C83F4
:102F400049815A816B818D810E94BA17C3CF2A961D
:102F50000FB6F894DEBF0FBECDBFDF91CF911F91AA
:102F60000F91FF90EF90DF90CF90BF90AF909F9028
:102F70008F900895DF92EF92FF920F931F93CF935C
:102F8000DF93CDB7DEB72B970FB6F894DEBF0FBE39
:102F9000CDBF7A878B87F42E052F162FE72ED82EDC
:102FA00061110E94AA201E821D827E2DEC82DD828C
:102FB0004F2D502F612F8D2D9E812B960FB6F8949B
:102FC000DEBF0FBECDBFDF91CF911F910F91FF905C
:102FD000EF90DF900C94811DFC01808191810C9415
:102FE0003720CF93C82F882309F44CC08CEF8C0F67
:102FF000813AC8F48C2F0E94B20F811143C06C2F0C
:1030000080910801909109010E94FC21882329F0F8
:103010008C2F0E946C200E94D6208C2F0E9465204D
:10302000CF910C94D62080E28C0F883048F4C77082
:1030300081E001C0880FCA95EAF70E948D20F0CF89
:10304000EBE5EC0FE33040F4F0E0EB56FE4F80810F
:1030500090E0CF910C947816E8E5EC0FE73150F44E
:10306000F0E0EE0FFF1FE959FE4F80819181CF9173
:103070000C948E16CD3E30F08C2F0E947811CF919B
:103080000C944B12CF910895882361F19CEF980F17
:10309000913A20F40E946C200C94D62090E2980F74
:1030A000983050F4877091E001C0990F8A95EAF743
:1030B000892F0E949320F0CF9BE5980F933020F446
:1030C00090E080E00C94781698E5980F973120F402
:1030D00090E080E00C948E168D3E20F00E94D2117C
:1030E0000C944B1208951F93CF93DF93182FEB018D
:1030F0000E94F117209731F4812FDF91CF911F911A
:103100000C9444188FE99FE00197F1F700C000008C
:103110002197F0CF70E060E0893311F460E570E052
:103120000C947318882321F00E948D200C94D620D3
:103130000895882321F00E9493200C94D6200895AE
:10314000BF92CF92DF92EF92FF920F931F93CF9394
:10315000DF936C01D62FC72FFC01128105810295E8
:103160000F700E948320E82E8823A1F0E12E112306
:1031700089F08C2F807F803429F080E28D0FE12C44
:10318000883040F082E00E9421210E94832091E05B
:10319000E82EE926BC2EB2949FE0B922EB2DF0E098
:1031A000E451F54D0C948B2A0C2F0F70C07F11F059
:1031B0000295007F1123A9F0002359F080E28D0FC2
:1031C000883010F0D11109C0802F0E948D200E94FC
:1031D000D6208D2F0E94F11714C0802F0E949D20B1
:1031E000F6CF8D2F0E944418002359F080E28D0FF6
:1031F000883010F0D1112CC0802F0E9493200E94A3
:10320000D6202B2D2850330B2430310520F40E947A
:1032100012160E947B08EE2009F49EC10E947F20B6
:1032200080FD9AC1F60112820E9479200E94051F3A
:10323000C6010E94CD1A0E947920DF91CF911F9183
:103240000F91FF90EF90DF90CF90BF900C94261FCE
:10325000802F0E94A320D3CFFC2FFF70FF2EC07FB2
:10326000C03219F0F29480EFF822DD2369F0D130FA
:1032700049F1112391F1002351F1F601858180FF7D
:10328000A8CF8F70858323C0112381F0011106C060
:103290000E94BD208F290E949218B3CF0130C1F740
:1032A0000E94BD208F290E94C320ABCF011106C010
:1032B0000E94CC208F2D0E949918A3CF013009F4D1
:1032C000A0CFF6CF112329F0063008F09ACF8F2D2A
:1032D000E2CF053008F095CFEDCF002359F3D93375
:1032E00049F4FFEF27EE33E0F15020403040E1F7A2
:1032F00000C000008D2F0E94441883CF8C2F86952C
:103300008695837069F0813009F07BCF8D2F9C2FDB
:103310009370111102C090E080E00E948E1671CF70
:103320008D2F9C2F9370111102C090E080E00E94BD
:10333000781667CF8D2F112329F00E9478110E94F3
:103340004B125FCF0E94D211FACF8C2F837009F0FD
:1033500041C0111156CF4D2F429546954770440FED
:10336000440F0D2F0F7010E030E020E0042E04C059
:10337000000F111F221F331F0A94D2F760E070E084
:10338000CB01D4FF0FC06FE070E080E090E004C09C
:10339000660F771F881F991F4A95D2F76095709521
:1033A00080959095C695C695C370602B712B822B26
:1033B000932BC23049F058F4C13019F00E94B71E67
:1033C00020CF0E94A51E1DCF0E94C91E1ACF0E94A9
:1033D000A31E17CF8695112311F08C2F817088239F
:1033E00009F40FCF4D2F429546954770440F440F77
:1033F0000D2F0F7010E030E020E0042E04C0000F0D
:10340000111F221F331F0A94D2F760E070E0CB0136
:10341000D4FF0FC06FE070E080E090E004C0660F62
:10342000771F881F991F4A95D2F7609570958095F0
:103430009095C695C695C370602B712B822B932BEC
:10344000C23049F058F4C13019F00E947C1FD9CE27
:103450000E946A1FD6CE0E948E1FD3CE0E94DF1E0E
:10346000D0CECF70112329F08C2F0E94051F8D2FF5
:1034700012CF8D2F0E9499188C2F0E94261FC1CE2B
:10348000D23F89F160F4D03FC9F0D13F29F1112337
:1034900009F442C001119DCE8C2F8F7121C0D33F02
:1034A00039F1D43FA1F7112369F1CF718C2F0E941C
:1034B000051F63E08C2F0E940C21A3CE112341F045
:1034C000053008F09ECE8C2F8F710E94491F99CE37
:1034D000063008F096CEF7CF8C2F8F71112369F24A
:1034E0000E94051F8ECE8C2F8F711123C9F3C5CF7B
:1034F000112329F08C2F8F710E94F01E82CE0E9422
:10350000EB1E7FCE81E00E942121023008F479CEAB
:1035100082E00E94212175CE002359F0D93309F0B1
:10352000E9CE8FEF97EEE3E081509040E040E1F785
:10353000DFCE8C2F8F71A1CF4C2F4F706D2FC60116
:103540000E9483080E941B1E5CCE4C2F4F706D2F73
:10355000C6010E94860855CEDF91CF911F910F9131
:10356000FF90EF90DF90CF90BF9008950F931F933F
:10357000CF93DF93EC01688179818A810E94412099
:103580008C010E94A01F0E94A21EB801CE01DF91F3
:10359000CF911F910F910C94A018CF93DF93EC0162
:1035A0008B819C81892B29F08881998189238F3F88
:1035B00059F4DF91CF910895CE010E94B61ACE0141
:1035C000DF91CF910C94B807CE010E94E1078111E1
:1035D000F3CF0E948320882361F38A81882349F3F3
:1035E00082E0DF91CF910C94212190E080E00E9455
:1035F000781690E080E00E948E160E94AA200E9419
:10360000BA200E94D6200E94F4130C944B120E9400
:1036100073200C94F51A0E949A200C94071BE92F32
:10362000E295EF70E250EE3070F4F0E0E450F54DCA
:103630000C948B2A803F19F020F4883E20F481E01E
:103640000895843FE1F380E00895883EC0F3813F10
:10365000D1F7F5CF93FB882780F908950E94372092
:103660000C940F1BCF93DF9300D000D00F92CDB7F7
:10367000DEB70F900F900F900F900F90DF91CF91CA
:103680000895CF93DF9300D000D000D0CDB7DEB740
:1036900026960FB6F894DEBF0FBECDBFDF91CF9157
:1036A00008951F93CF93DF93C091EC0116E08091B2
:1036B000ED018C1304C0DF91CF911F910895D0E0EC
:1036C0001C9FF0011D9FF00D1124E251FE4F40811F
:1036D000518162817381848195810E94411B219671
:1036E000C770E5CF40911E0250911F0260912002E9
:1036F0007091210280912202909123020C94411B2F
:103700001F93CF93DF9380912302807FA9F4809150
:103710002002882389F08091EC01C091ED01609135
:103720001E0270911F02A0912102B0912202D62F99
:10373000D72316E0C81304C0DF91CF911F910895DD
:1037400090E0109711F0DF3F19F401968770F2CFE7
:10375000189F9001199F300D1124F901E251FE4F7D
:1037600041814713F2CF40814613EFCF428141118F
:10377000ECCF438154814A1B5B0B483C510528F731
:10378000809123028F70806180932302F901ED50B4
:10379000FE4F80818F70806180838EE192E00E9475
:1037A000CD1ADF91CF911F910C94511BAF92BF9214
:1037B000CF92DF92EF92FF920F931F93CF93DF93FD
:1037C000CDB7DEB761970FB6F894DEBF0FBECDBFA1
:1037D0008C0185E0F801DE011D9601900D928A951D
:1037E000E1F7F80140815181E2808EE1C82E82E04C
:1037F000D82E60912102709122026115710509F4A1
:1038000061C190911E0220911F02892F82238F3F58
:1038100009F458C1A380B480F0902002F501E61BA2
:10382000F70BFF2009F4FCC080912302382F307F72
:10383000E83CF10508F0B2C0311179C0FE2C251327
:1038400023C0941321C0E1101FC08F70806180934A
:1038500023020E94721BC6010E94CD1A809123028E
:10386000F80185838F2D61960FB6F894DEBF0FBEE9
:10387000CDBFDF91CF911F910F91FF90EF90DF901F
:10388000CF90BF90AF900895AB2829F0842F852367
:103890008F3F09F033C180E0F82FF170DF2E80FFF9
:1038A0003CC08091EC012091ED0136E0821315C0FF
:1038B0004D875E878D859E850E943720292F229512
:1038C0002F702230F0F0243018F59F70F1F0F801DD
:1038D0009581907FD1F4D12C1EC090E0389FF001EB
:1038E000399FF00D1124E251FE4F6181651306C02E
:1038F0006081641303C062816E110FC001968770EE
:10390000D5CF9F7011F0882331F3805E883018F393
:10391000C8010E94CD1AFD2CA5CFEE2009F4A2CF3C
:1039200080912302816080932302F12C9BCF251389
:1039300006C0941304C0F801EE2009F48DC04D8731
:103940005E878D859E850E942E1B882319F1EE20AF
:1039500009F180912302803270F020911E02309193
:103960001F0238872F831986BB86AA868C87CE01D3
:1039700007960E94CD1A86E0F801AEE1B2E0019010
:103980000D928A95E1F70E94801B0E94721BFF2412
:10399000F39468CFC8010E94CD1AF9CF311113C03A
:1039A0007A2DB98AA88A6E2D89890E94321B8EE1F0
:1039B00092E00E94CD1A86E0F60111928A95E9F70D
:1039C0000E94721BB2CF25130FC094130DC0E110DB
:1039D0000BC0F8018583C8010E94CD1A86E0F6016C
:1039E00011928A95E9F73ECF4D875E878D859E853A
:1039F0000E942E1B882371F2EE2061F28091230237
:103A0000803208F4B8CF20911E0230911F023A8311
:103A100029831B82BD82AC828E83CE010196A9CF01
:103A2000E83CF10508F041C0FE2CEE2009F4B2CFCD
:103A300025132AC0941328C08091230280FD1BC047
:103A4000982F907FC1F0F8018583903F31F0982F37
:103A5000907F905F8F70892B8583C8010E94CD1A5B
:103A600086E0F801AEE1B2E001900D928A95E1F7AF
:103A70000E94721BF7CE86E0F801AEE1B2E0019041
:103A80000D928A95E1F7EECE4D875E878D859E85F6
:103A90000E942E1B81116FCF809123028160809341
:103AA0002302C8010E94CD1ADDCE7A2DB98AA88AD8
:103AB0006E2D89890E94321B86E0F60111928A954B
:103AC000E9F7D6CFEE2009F465CF4D875E878D8567
:103AD0009E850E942E1BF82E882309F45BCF86E07A
:103AE000F801AEE1B2E001900D928A95E1F78EE126
:103AF00092E00E94EC170E94801BBACF81E08E25D5
:103B0000CBCE1F93CF93DF93CDB7DEB72C970FB6F5
:103B1000F894DEBF0FBECDBF4F83588769877A8781
:103B20008B879C87CE0107960E94D61B882369F05D
:103B30008A859B85892B39F04F815885842F852371
:103B40008F3F09F071C016E05FC086E0FE01379636
:103B5000DE01119601900D928A95E1F78A859B8589
:103B6000892B89F38F81988589238F3F61F3209179
:103B7000ED0130E0C9010196877099274091EC0171
:103B80004817190671F40E940B1B1092ED01109258
:103B9000EC0186E0EEE1F2E0DF011D928A95E9F7A3
:103BA000D2CF96E0929FD001939FB00D1124A251E5
:103BB000BE4FFE01319601900D929A95E1F78093E8
:103BC000ED010E94511BBFCF819FC0011124825182
:103BD0009E4F0E94D61B8823E9F0E091EC011E9FC6
:103BE000F0011124E251FE4F4081518162817381C5
:103BF000848195810E94411B8091EC0190E00196A7
:103C0000877099278093EC018091EC019091ED01F0
:103C10008913DACF2C960FB6F894DEBF0FBECDBF56
:103C2000DF91CF911F91089569857A858B859C8559
:103C30000E94411B88CFEF92FF920F931F93CF9367
:103C4000DF938C01892B81F0F12CEE24E394E801C1
:103C50002196F8018491843770F4843008F05FC0B5
:103C60008130B1F08230A1F1DF91CF911F910F919E
:103C7000FF90EF900895853709F44CC008F43DC0DB
:103C80009CE7980F903780F78F770E94441849C0BF
:103C90000E5F1F4FFE01849190E2980F983060F400
:103CA0008770FE2D01C0FF0F8A95EAF78F2F0E94C3
:103CB000AD200E94D62002C00E94F1178F2D8150A6
:103CC00030F2EFE9FFE03197F1F700C00000F7CFE5
:103CD0000E5F1F4FFE01849190E2980F983050F4D0
:103CE0008770FE2D01C0FF0F8A95EAF78F2F0E9483
:103CF000B320DFCF0E944418E1CF0E5F1F4FFE01BB
:103D0000C491C150D8F28FE99FE00197F1F700C04C
:103D10000000F7CF0E5F1F4FFE01F490CFCF0E943F
:103D2000F1178E01CBCF08950C94931E0E94941E20
:103D300060937D0270937E0280937F029093800255
:103D40000C94F51A08950C94961E0F931F930091EE
:103D50007D0210917E0220917F0230918002602BC3
:103D6000712B822B932B1F910F910C94961E0F9306
:103D70001F9300917D0210917E0220917F0230916D
:103D8000800260237123822393231F910F910C944F
:103D9000961E0F931F9300917D0210917E02209139
:103DA0007F023091800260277127822793271F911D
:103DB0000F910C94961E0C94931E0C94DB1E0E9483
:103DC000DD1E6093790270937A0280937B02909358
:103DD0007C020C94F51A60E070E0CB010C94DF1EBD
:103DE0000F931F9341E050E060E070E08A019B0177
:103DF00004C0000F111F221F331F8A95D2F7C9017B
:103E0000B8011F910F910C94DF1E0F931F9341E097
:103E100050E060E070E004C0440F551F661F771F3C
:103E20008A95D2F78091790290917A02A0917B02D3
:103E3000B0917C028A019B01082B192B2A2B3B2B6A
:103E4000C901B8011F910F910C94DF1E0F931F93AE
:103E500041E050E060E070E004C0440F551F661F71
:103E6000771F8A95D2F7CB01BA016095709580953E
:103E700090950091790210917A0220917B02309105
:103E80007C0260237123822393231F910F910C9452
:103E9000DF1E0F931F9341E050E060E070E004C02C
:103EA000440F551F661F771F8A95D2F780917902BC
:103EB00090917A02A0917B02B0917C028A019B01D1
:103EC000082719272A273B27C901B8011F910F91FD
:103ED0000C94DF1E0F931F930091790210917A02C8
:103EE00020917B0230917C02602B712B822B932BD3
:103EF0001F910F910C94DF1E0F931F930091790275
:103F000010917A0220917B0230917C026023712310
:103F1000822393231F910F910C94DF1E0F931F9305
:103F20000091790210917A0220917B0230917C02FB
:103F300060277127822793271F910F910C94DF1E12
:103F400008952BE0929F800D1124982F977041E0E7
:103F500001C0440F9A95EAF786958695869595E077
:103F6000899FF0011124EC5DFD4F90E080E070E04E
:103F70005191DF0111979B01082E02C036952795BC
:103F80000A94E2F7217021952527242325272C93D5
:103F900001968530910561F708952BE0929F800D81
:103FA0001124982F977086958695869525E0829F97
:103FB000F0011124EC5DFD4F50E040E080E02191E4
:103FC00030E0092E02C0369527950A94E2F7217059
:103FD0003327042E01C0220F0A94EAF7822B4F5F89
:103FE0005F4F4530510559F70895BF92CF92DF9248
:103FF000EF92FF920F931F93CF93DF938C01C090AA
:104000007902D0907A02E0907B02F0907C0280915D
:104010007D0290917E02A0917F02B0918002C82A19
:10402000D92AEA2AFB2ACFE1D0E0BC2ED701C6016B
:104030000C2E04C0B695A795979587950A94D2F74C
:1040400080FD0EC0219788F7B12C8B2DDF91CF9189
:104050001F910F91FF90EF90DF90CF90BF90089548
:10406000B8018C2F0E94A308019761F3EECFCF9384
:10407000DF93EC010E94F51FBE01DF91CF910C94FC
:10408000A3081F93CF93DF93EB019091EB0199234A
:1040900031F0CB01DF91CF911F910C943720882311
:1040A00079F0CB010E94F51F182F682FCE010E94D6
:1040B000A11FBE01812FDF91CF911F910C94A30806
:1040C000CB010E94CD1F182FF4CF682F80910801DB
:1040D000909109010C943222682F809108019091EF
:1040E00009010C94342280910801909109010C94EB
:1040F00036228091810285958595859508958091D8
:1041000081028770089590918102977081E009F48F
:1041100080E0089580918D02089590918D02892B01
:1041200080938D020895809590918D0298239093AD
:104130008D02089510928D02089590918C02892B22
:1041400080938C020895809590918C02982390938F
:104150008C02089510928C02089590918B02892B05
:1041600080938B020895809590918B029823909371
:104170008B02089510928B02089580918202089517
:1041800008950C94C02090918202981721F080939A
:1041900082020C94C120089580918202882329F024
:1041A0001092820280E00C94C1200895E0910801F1
:1041B000F091090180918D028083E0910801F091D6
:1041C0000901808190918C02892B8083E091080104
:1041D000F0910901808190918B02892B80839091CD
:1041E0008202992381F0E0910801F0910901808118
:1041F000892B808380910801909109010E94EA2116
:1042000081110E94CC2080910801909109010C94A9
:104210001E1608950C94092198E0899F900111249D
:10422000622B609381020E94051F80918102859517
:10423000859585950C940A211092810280E00C945A
:104240000A21909181028095892380938102282FF1
:10425000277071F4282F082E000C330B92171306C9
:1042600039F08595859585950E94261F0C941C2113
:1042700008956FEF7FEF90E080E00C94D42A90E0F7
:1042800080E00E94B02A21E08B3E9E4F09F020E0A2
:10429000822F089582E090E00C94A82A83E090E0B9
:1042A0000C94A82ACF9384E090E00E94A82AC82FFB
:1042B00081E290E00E94A82A982F8C2FCF91089538
:1042C000CF93C92F682F84E090E00E94B62A6C2F0C
:1042D00081E290E0CF910C94B62AAB01BC018FE053
:1042E00090E00C94C82AAB01BC0183E190E00C94EF
:1042F000C82A60E070E0CB010C94732160E070E0AC
:10430000CB010E946D210C9479216BEE7EEF90E041
:1043100080E00E94D42A60E082E090E00E94B62A09
:1043200060E083E090E00E94B62A10927D02109235
:104330007E0210927F021092800260E084E090E0A2
:104340000E94B62A60E081E290E00E94B62A60E016
:1043500085E090E00E94B62A60E086E090E00E944E
:10436000B62A6FEF87E090E00E94B62A40E050E066
:10437000BA0188E090E00E94C82A60E08DE090E0F9
:104380000E94B62A40E050E0BA0188E190E00E9425
:10439000C82A60E087E190E00E94B62A40E050E041
:1043A000BA018CE190E00E94C82A60E080E290E0CF
:1043B0000E94B62A40E050E0BA0188E190E00E94F5
:1043C000C82A0C947E210C948521682F8EE090E001
:1043D0000C94B62A9C012E5F3F4FAC01485F5F4FA3
:1043E00080E02417350709F40895F90191919F01A0
:1043F0009923B9F38F5FF5CF662349F0FC0132961C
:1044000008962191261729F0E817F907D1F780E0DF
:10441000089581E008959C01FC0132969FEF80E0B1
:104420004191461751F09F3F19F4411101C0982F57
:104430008F5F8630A9F79F3F09F40895290F311D3A
:1044400097FD3A95F90162830895FC01329608962A
:104450002191261303C0DF0111971C92E817F90779
:10446000B9F708950C940B220C942522029626E0AD
:10447000FC0111922A95E9F7089508950C943D22C4
:104480000E940B1B0E9412160E947B080C943E2275
:104490001F921FB61F9211248F939F93AF93BF93C8
:1044A00080918F02811113C08091CD029091CE0234
:1044B000A091CF02B091D0024196A11DB11D809371
:1044C000CD029093CE02A093CF02B093D002BF91C1
:1044D000AF919F918F911F901FBE1F90189582E002
:1044E00084BD93E095BD9AEF97BD80936E000895CB
:1044F0002FB7F8948091CD029091CE02A091CF0277
:10450000B091D0022FBF08952FB7F8946091CD02DB
:104510007091CE028091CF029091D0022FBF08956A
:104520009C014FB7F8948091CD029091CE02A0915A
:10453000CF02B091D0024FBF821B930B08957894A5
:104540001F921FB61F9211248F939F93AF93BF9317
:104550008091CD029091CE02A091CF02B091D00275
:104560000196A11DB11D8093CD029093CE02A09320
:10457000CF02B093D002BF91AF919F918F911F90C6
:104580001FBE1F90189581E08093E00080E2809329
:10459000D8001092C9008FE19EE40197F1F700C0A6
:1045A000000087E090EBDC018093E0029093E10251
:1045B000A093E202B093E30288E19CE00FB6F89486
:1045C000A895809360000FBE90936000FFCF9093FA
:1045D000A9018093A80108950C9439210E942D0B04
:1045E0002FEF86E791E0215080409040E1F700C036
:1045F00000000E942D0B80E00E94970A80FF04C0FB
:104600000E94EC220C94C32208950E943F21811144
:1046100002C00E94E3210E944A2180938E020E94E0
:1046200052219093D2028093D1020E944E21682F92
:1046300070E090E080E00E94A31E6091790270918A
:104640007A0280917B0290917C020C94DD1E809115
:104650009B020895CF93DF9300D00F92CDB7DEB7C2
:104660009091D702943019F589837B836A8382E025
:104670008093E9008FEF9091E800815095FD06C08E
:1046800095ED9A95F1F700008111F5CF8091E80042
:1046900085FF0DC050E040E063E070E0CE01019680
:1046A0000E94D2258091E8008E778093E8000F90D9
:1046B0000F900F90DF91CF910895BC0184E00C948E
:1046C0002A23BC0183E00C942A239C0182E080937E
:1046D000E9009FEF8091E800915085FD06C085EDCF
:1046E0008A95F1F700009111F5CF8091E80085FFE0
:1046F0000CC050E040E066E070E0C9010E94D225A5
:104700008091E8008E778093E8000895CF93DF933F
:10471000EC0181E08093E9008FEF9091E8008150F7
:1047200095FD06C095ED9A95F1F700008111F5CF42
:104730008091E80085FF14C050E040E068E070E040
:10474000CE010E94D2258091E8008E778093E80008
:1047500088E0FE01A3E9B2E001900D928A95E1F7AD
:10476000DF91CF9108958DEA9AE00E9476068091BC
:10477000D602811109C00E9460270E94C227809141
:10478000E20084608093E200089589EA9AE00E9442
:1047900076061092D602089585EA9AE00C94760681
:1047A00081EA9AE00C9476068DE99AE00E947606FA
:1047B0000C944022209191022F5F822F62E30E948D
:1047C0006B2A992319F02093910208951092910277
:1047D000809192028823F1F08091D7028430C1F455
:1047E0009091E9009F702091EC00822F817020FD54
:1047F00080E8892B93E09093E9009091EB0090FF83
:1048000004C09091EE0097FD08C08F708093E9007E
:104810001092920208951092F1009091E80095FD97
:10482000FACF9091E80090FFF0CF9091E8009E774A
:104830009093E800EACF42E061EC81E00E94DC2640
:1048400042E261EC82E00E94DC2642E261EC83E01D
:104850000C94DC268091D902833009F45FC030F4D7
:104860008130C1F1823009F49BC008958A3009F487
:1048700087C08B3009F46DC0893009F04EC080913B
:10488000D802813209F049C08091DC029091DD02AA
:10489000029708F042C08091E800877F8093E8008B
:1048A0008091E80082FF35C08091F2009091F30082
:1048B000029729F48091F1008B7F813021F480915F
:1048C000F10080939B028091E8008B778093E80051
:1048D0000C9410278091D802813AF9F48091E80075
:1048E000877F8093E8008091DC029091DD02892B24
:1048F00061F468E083E992E070E00E9421268091F3
:10490000E8008B778093E800089560E090E080E015
:10491000F3CF8091D7028111C3CF08958091D8023F
:10492000813AD9F78091DC029091DD02892BA9F7B9
:104930008091E800877F8093E8008091E80080FF05
:10494000FCCF809114018093F1008091E8008E7774
:10495000BDCF8091D802813201F78091DC02909125
:10496000DD02892BD1F68091E800877F8093E800F3
:104970000E9410278091DA02809314010C940B1B83
:104980008091D802813249F68091E800877F809338
:10499000E8000E9410278091DB0280939C0208951A
:1049A0008091D802813A09F0B8CF8091E800877FE2
:1049B0008093E8008091E80080FFFCCF80919C020A
:1049C000C2CF9FB7F894109292029FBF9091D702E6
:1049D000943009F048C02091E9002F703091EC002C
:1049E000932F917030FD90E8922B23E02093E90003
:1049F0002091EB0020FF34C02091EE0027FF30C053
:104A000020919002222321F02091E80025FF28C068
:104A10001092900226E03091E80035FF14C0809398
:104A2000F1008091E80085FD27C08091E80080FFBB
:104A3000FCCF8091E8008E778093E8009F70909380
:104A4000E90080E008953091D702343049F4309184
:104A5000EB0035FD05C0215041F481E080939002C8
:104A60009F709093E9008FEF0895EFE9FFE0319791
:104A7000F1F700C00000CFCF8FB7F89421E020936A
:104A800092028FBFDBCF84B7877F84BF0FB6F894C5
:104A9000A89580916000886180936000109260000A
:104AA0000FBE80E890E00FB6F89480936100909379
:104AB00061000FBE0E94C5160E9460270E94C22797
:104AC0008091E20084608093E20078940E94502AF2
:104AD0000E94D4168AE091E00E940D168CE89AE0BC
:104AE0000E9476060E9404170E94D3160E94740743
:104AF000F9CF0C947B25292F33272330310521F161
:104B000068F42130310509F443C02230310509F43D
:104B100044C090E080E030E020E026C02132310542
:104B200051F122323105A9F76330710590F7FB018D
:104B3000EE0FFF1FE556FE4F2081318168567E4FF4
:104B4000FB01808190E010C099278130910581F0B0
:104B5000009729F00297E9F6E1EBFAE002C0EFEEE8
:104B6000FAE0849190E09F01FA0131832083089557
:104B7000EFECFAE0F6CF6330710558F6660F771F59
:104B8000FB01EF55FE4F2081318189E090E0ECCFB1
:104B900082E190E02EE43BE0E7CF8BE590E023EF6D
:104BA0003AE0E2CFAF92BF92CF92DF92FF920F93A3
:104BB0001F93CF93DF936C01EB018A010E942F2793
:104BC000F82E811123C00115110539F0F8018081FB
:104BD0009181C81BD90BC80ED91EB12CA12C2097CE
:104BE000A9F08091E80085FD22C08091E8008E77D1
:104BF0008093E80001151105A1F0F80180819181F1
:104C0000A80EB91EB182A08285E0F82E8F2DDF910B
:104C1000CF911F910F91FF90DF90CF90BF90AF90F9
:104C200008950E942F278823D1F2F82EEFCFF601A6
:104C300081916F018093F1002197FFEFAF1ABF0AB6
:104C4000CECFFC018091DE029091DF02861797079C
:104C5000A0F06115710529F49091E8009E7790937A
:104C6000E80090E06115710551F4911108C0809140
:104C7000E80082FF33C080E00895BC01F2CF80914C
:104C8000D7028823B9F18530B9F18091E80083FD1E
:104C90002FC08091E80082FDEACF8091E80080FF7C
:104CA000E1CF2091F2003091F3006115710519F008
:104CB0002830310558F091E02830310509F090E0B6
:104CC0002091E8002E772093E800CCCF819180934B
:104CD000F100615071092F5F3F4FE7CF8091D702FC
:104CE000882341F0853041F08091E80083FFBFCFF9
:104CF00081E0089582E0089583E00895FC018091A9
:104D0000DE029091DF0286179707A0F0611571050A
:104D100029F48091E8008E778093E80090E0611597
:104D2000710551F4911108C08091E80082FF34C0F0
:104D300080E00895BC01F2CF8091D7028823C1F1B1
:104D40008530C1F18091E80083FD30C08091E8009A
:104D500082FDEACF8091E80080FFE1CF2091F20050
:104D60003091F3006115710519F02830310558F0C4
:104D700091E02830310509F090E08091E8008E77CD
:104D80008093E800CCCF84918093F10031966150FC
:104D900071092F5F3F4FE6CF8091D702882341F002
:104DA000853041F08091E80083FFBECF81E0089517
:104DB00082E0089583E00895982F973028F08F704F
:104DC0008093E90081E008959093E900242F762FE5
:104DD00050E0981731F07091EC002091ED00509167
:104DE000F00021FD02C09F5FE8CF3091EB003E7FD5
:104DF0003093EB003091ED003D7F3093ED0030912A
:104E0000EB0031603093EB007093EC002093ED00E9
:104E10005093F0002091EE0027FDE5CF80E008954B
:104E20008091D80287FF13C08091E80082FF06C0FE
:104E30008091E8008B778093E80004C08091D702CE
:104E40008111F2CF08958091D7028823D9F3809100
:104E5000E80080FFF8CF8091E8008E77ECCF2091BA
:104E6000E4003091E50095E6A9012091EC00822F45
:104E7000817020FF06C08091E80080FF06C080E0BE
:104E800008952091E80022FD1AC08091D70288235E
:104E900089F0853089F08091EB0085FD0FC020916D
:104EA000E4003091E50042175307F9F29150E1F622
:104EB00084E0089582E0089583E0089581E00895F4
:104EC0000E94D1270E94D927E0EEF0E08081816026
:104ED0008083E8EDF0E080818F77808319BCA7EDB7
:104EE000B0E08C918E7F8C9380818F7E8083109236
:104EF000D60208950F931F93CF93DF930E94D1277B
:104F00000E94D927C8EDD0E088818F778883888177
:104F10008068888388818F7D8883E7EDF0E08081D9
:104F20008068808319BC1092D7021092D30210922D
:104F3000D5021092D40200EE10E0F80180818B7F40
:104F4000808388818160888342E060E080E00E9405
:104F5000DC26E1EEF0E080818E7F8083E2EEF0E0FF
:104F6000808181608083808188608083F801808176
:104F70008E7F8083888180618883DF91CF911F91AC
:104F80000F910895E8EDF0E080818F7E8083E7ED5A
:104F9000F0E080818160808381E08093D6020C9470
:104FA0007A27E8EDF0E080818C7F80831092E20028
:104FB00008951092DA001092E10008951F920F9266
:104FC0000FB60F9211240BB60F922F933F934F936E
:104FD0005F936F937F938F939F93AF93BF93EF9361
:104FE000FF938091E10082FF0BC08091E20082FF7D
:104FF00007C08091E1008B7F8093E1000E94DA235B
:105000008091DA0080FF19C08091D80080FF15C020
:105010008091DA008E7F8093DA008091D90080FF42
:1050200098C084E189BD86E189BD09B400FEFDCF49
:1050300081E08093D7020E94B3238091E10080FF3A
:1050400019C08091E20080FF15C08091E2008E7F40
:105050008093E2008091E20080618093E200809181
:10506000D80080628093D80019BC85E08093D70275
:105070000E94D0238091E10084FF2BC08091E20048
:1050800084FF27C084E189BD86E189BD89B5982F59
:10509000917080FFFBCF8091D8008F7D8093D800E6
:1050A0008091E1008F7E8093E1008091E2008F7E0D
:1050B0008093E2008091E20081608093E200809121
:1050C000D302882309F44BC084E08093D7020E9466
:1050D000D4238091E10083FF29C08091E20083FF07
:1050E00025C08091E100877F8093E10082E080937A
:1050F000D7021092D3028091E1008E7F8093E1006D
:105100008091E2008E7F8093E2008091E2008061D6
:105110008093E20042E060E080E00E94DC26809123
:10512000F00088608093F0000E94CC23FF91EF9103
:10513000BF91AF919F918F917F916F915F914F91AF
:105140003F912F910F900BBE0F900FBE0F901F90AD
:10515000189519BC1092D7020E94C5236ECF80917A
:10516000E30087FD93E09093D702B1CF1F920F9297
:105170000FB60F9211240BB60F922F933F934F93BC
:105180005F936F937F938F939F93AF93BF93CF93CF
:10519000DF93EF93FF93D091E900DF708091EC00F3
:1051A000C82FC17080FDC0E81092E9008091F00026
:1051B000877F8093F00078940E94FE281092E90087
:1051C0008091F00088608093F000CD2BCF70C09369
:1051D000E900FF91EF91DF91CF91BF91AF919F9146
:1051E0008F917F916F915F914F913F912F910F9090
:1051F0000BBE0F900FBE0F901F9018951F93CF936B
:10520000DF93CDB7DEB7AA970FB6F894DEBF0FBE17
:10521000CDBF88ED92E02091F100FC012193CF01F8
:10522000F2E0803E9F07B9F70E942A248091E800AF
:1052300083FF1EC18091D8029091D9029A3008F064
:1052400017C1E92FF0E0E65FF44D0C948B2A80380B
:1052500099F0823809F00CC18091DC028F708730A0
:1052600008F006C18093E9008091EB0085FB882758
:1052700080F91092E90006C08091D4029091D50285
:10528000911182609091E800977F9093E80080935D
:10529000F1001092F1008091E8008E77E5C088233C
:1052A00009F4D3C0823009F0E3C08091DA028111A1
:1052B000D6C08091DC028F702FEF280F263008F0C7
:1052C000D7C08093E9002091EB0020FFC8C0933045
:1052D00031F48091EB0080628093EB00C0C090912C
:1052E000EB0090619093EB0021E030E001C0220FD1
:1052F0008A95EAF72093EA001092EA008091EB0089
:105300008860EACF8111B4C01091DA021F778091D2
:10531000E3008078812B8093E3008091E800877F11
:105320008093E8000E9410278091E80080FFFCCF66
:105330008091E30080688093E30082E0111183E0B4
:105340008093D70295C08058823008F091C0809138
:10535000DA029091DB028C3D23E09207A1F583E015
:105360008A838AE289834FB7F894DE01139620E09E
:105370003EE051E2E32FF0E050935700E49120FF2C
:1053800003C0E295EF703F5FEF708E2F90E0EA3040
:10539000C0F0C7968D939D932F5F243159F74FBF6F
:1053A0008091E800877F8093E8006AE270E0CE0198
:1053B00001960E9421268091E8008B778093E80077
:1053C00057C0C096E7CF6091DC027091DD02AE015C
:1053D0004F5F5F4F0E947925BC01892B09F448C0BB
:1053E0009091E800977F9093E80089819A810E94CC
:1053F0007E26E1CF8038E1F58091E800877F8093B9
:10540000E8008091D3028093F10045CF811130C034
:105410009091DA02923060F58091E800877F809366
:10542000E8009093D3020E9410278091D302882332
:1054300011F084E005C08091E30087FDFACF81E0A0
:105440008093D7020E941B2413C08091DA0281301E
:1054500079F481E0933009F080E08093D5021092D6
:10546000E9008091E800877F8093E8000E94102780
:105470008091E80083FF0AC08091E800877F8093D5
:10548000E8008091EB0080628093EB00AA960FB653
:10549000F894DEBF0FBECDBFDF91CF911F9108956D
:1054A000CF938091D7028823A1F0C091E900CF70FB
:1054B0009091EC00892F817090FD80E8C82B1092AC
:1054C000E9008091E80083FD0E94FE28CF70C09320
:1054D000E900CF910895991B79E004C0991F9617B0
:1054E00008F0961B881F7A95C9F78095089597FB59
:1054F000072E16F4009407D077FD09D00E94942A55
:1055000007FC05D03EF4909581959F4F08957095C6
:1055100061957F4F0895EE0FFF1F0024001C0BBE06
:105520000790F691E02D0994AA1BBB1B51E107C01F
:10553000AA1FBB1FA617B70710F0A61BB70B881F23
:10554000991F5A95A9F780959095BC01CD010895B2
:10555000F999FECF92BD81BDF89A992780B508953B
:10556000A8E1B0E042E050E00C94DC2A262FF99943
:10557000FECF92BD81BDF89A019700B4021639F0B2
:105580001FBA20BD0FB6F894FA9AF99A0FBE089583
:105590000396272F0E94B72A0E94B62A252F0E9421
:1055A000B72A242F0C94B72A0196272F0E94B72AD6
:1055B0000C94B62ADC01CB01FC01F999FECF06C0A0
:1055C000F2BDE1BDF89A319600B40D9241505040C1
:1055D000B8F70895F894FFCFD418D4182C192C19C3
:1055E0007E199A1901190119A519311A401A401A80
:1055F0009C1A01190119A51A1A1B1A1B231B231B1C
:10560000251B231B231B231B1A1B1A1B2A1B231BB3
:10561000231B2A1B27294F29382A4F29382A822958
:08562000A329382AFA29062A01
:105628002808641E140A321E830227238623652352
:1056380061235D2301E200E900EA00B500B600B786
:1056480000CD008301CC008A01920194012102233C
:105658000224022502260227022A02B300B4006FA0
:10566800007000818283F0F1F260616263646566B4
:105678006730313290339134923593369401020376
:1056880004050607080900E200E900EA00B500B6CB
:1056980000B700CD008301CC008A0192019401215A
:1056A80002230224022502260227022A02B300B49A
:1056B800006F007000818283407B22FD0B820B60AB
:0856C8000B050B1E0B370B0054
:00000001FF
