:100000000C941F060C9468060C9468060C94680601
:100010000C9468060C9468060C9468060C946806A8
:100020000C9468060C9468060C9419290C94F12918
:100030000C9483230C9468060C9468060C94680650
:100040000C9468060C9468060C9468060C94680678
:100050000C9468060C94DA230C9468060C944407FC
:100060000C9468060C9468060C9468060C94680658
:100070000C9468060C9468060C9468060C94680648
:100080000C9468060C9468060C9468060C94680638
:100090000C9468060C946806290000003A003B00A6
:1000A0003C003D003E003F00400041004200430054
:1000B00044004500460047004800000000000000E2
:1000C0000000000035001E001F002000210022005B
:1000D000230024002500260027002D002E002A00E2
:1000E00049004A004B0053005400550056000000E0
:1000F0002B0014001A000800150017001C0018003F
:100100000C00120013002F00300028004C004D009E
:100110004E005F00600061005700000039000400DD
:100120001600070009000A000B000D000E000F006A
:1001300033003400320000000000000000005C00CA
:100140005D005E0000000000E10064001D001B0077
:1001500006001900050011001000360037003800B5
:10016000E500000000005200000059005A005B004A
:1001700058000000E000E300E20000000000000082
:100180002C00000000000000E600E7006500E4002D
:10019000500051004F0062000000630000000000AA
:1001A00044454255473A2064697361626C65642E28
:1001B0000A0044454255473A20656E61626C6564A9
:1001C0002E0A000A002530313662003A2000253020
:1001D0003258000A722F63203031323334353637CB
:1001E00038394142434445460A006D6B5F77686584
:1001F000656C5F74696D655F746F5F6D6178203DDC
:100200002025640A006D6B5F776865656C5F6D61C2
:10021000785F7370656564203D2025640A006D6B0E
:100220005F74696D655F746F5F6D6178203D202537
:10023000640A006D6B5F6D61785F73706565642043
:100240003D2025640A006D6B5F696E74657276618E
:100250006C203D2025640A006D6B5F64656C6179DC
:10026000203D2025640A006D6B5F776865656C5FD3
:1002700074696D655F746F5F6D6178203D202564E2
:100280000A006D6B5F776865656C5F6D61785F73A1
:1002900070656564203D2025640A006D6B5F74699C
:1002A0006D655F746F5F6D6178203D2025640A0085
:1002B0006D6B5F6D61785F7370656564203D2025AF
:1002C000640A006D6B5F696E74657276616C203DC7
:1002D0002025640A006D6B5F64656C6179203D20A8
:1002E00025640A000A00257500363A20776865659E
:1002F0006C5F74696D655F746F5F6D61783A200043
:100300000A00257500353A20776865656C5F6D6178
:10031000785F73706565643A20000A0025750034C3
:100320003A2074696D655F746F5F6D61783A200083
:100330000A00257500333A206D61785F737065653A
:10034000643A20000A00257500323A20696E74650F
:100350007276616C286D73293A20000A00257500B9
:10036000313A2064656C6179282A31306D73293AFD
:1003700020000A092D2056616C756573202D0A0036
:100380004D3E004D25643E20003F0073657420649F
:10039000656661756C740A00433E2000776865727B
:1003A000652064656C74613A20637572736F723D89
:1003B00025642C20776865656C3D25640A53656566
:1003C00020687474703A2F2F656E2E77696B697090
:1003D000656469612E6F72672F77696B692F4D6F46
:1003E0007573655F6B6579730A000A092D204D6F7F
:1003F0007573656B6579202D0A4553432F713A0952
:10040000717569740A313A0964656C6179282A3119
:10041000306D73290A323A09696E74657276616CBF
:10042000286D73290A333A096D61785F73706565C9
:10043000640A343A0974696D655F746F5F6D617841
:100440000A353A09776865656C5F6D61785F73702E
:100450006565640A363A09776865656C5F74696D2D
:10046000655F746F5F6D61780A0A703A097072692E
:100470006E742076616C7565730A643A09736574ED
:100480002064656661756C74730A75703A092B3166
:100490000A646F776E3A092D310A706775703A09F0
:1004A0002B31300A7067646F776E3A092D31300A4C
:1004B0000A7370656564203D2064656C7461202A50
:1004C000206D61785F7370656564202A20287265ED
:1004D00070656174202F2074696D655F746F5F6D46
:1004E0006178290A003F004D3E2000433E20004C29
:1004F00025640A0074696D65725F726561643332E8
:1005000028293A202530346C580A006B6579626FCF
:100510006172645F69646C653A2025580A006B65F6
:1005200079626F6172645F70726F746F636F6C3A3F
:100530002025580A00686F73745F6B6579626F617C
:1005400072645F6C65647328293A2025580A000A92
:10055000092D20537461747573202D0A004743439D
:100560003A20382E342E30204156522D4C494243E9
:100570003A20322E302E30204156525F41524348AD
:100580003A2061767235310A004F5054494F4E532C
:100590003A204C554641204D4F5553454B45592027
:1005A00045585452414B455920434F4E534F4C45AB
:1005B00020434F4D4D414E4420383139320A0042DC
:1005C00055494C443A20202841756720323020326A
:1005D000303231290A005649443A203078464545A0
:1005E0004428254D414E55464143545552455225C8
:1005F00029205049443A2030783030303028613258
:100600003030305365726F74696E612920564552DF
:100610003A203078303030310A000A092D205665F2
:100620007273696F6E202D0A000A092D20436F6EC8
:10063000736F6C65202D0A4553432F713A0971750C
:1006400069740A6D3A096D6F7573656B65790A0097
:100650000A092D204D61676963202D0A443A094437
:1006600065627567204D65737361676520546F67B8
:10067000676C650A583A094D61747269782044655F
:10068000627567204D6F646520546F67676C6520E5
:100690002D2053686F77206B657970726573736571
:1006A0007320696E206D6174726978206772696465
:1006B0000A4B3A094B6579626F6172642044656246
:1006C000756720546F67676C65202D2053686F77BE
:1006D000206B65797072657373207265706F7274C8
:1006E0000A4D3A094465627567204D6F7573652040
:1006F000546F67676C650A563A0956657273696F7D
:100700006E0A533A095374617475730A433A094186
:100710006374697661746520436F6E736F6C6520D6
:100720004D6F64650A46312D4631303A0953776979
:1007300074636820746F204C6179657220302D39A4
:100740002028463130203D204C30290A302D393ABE
:100750000953776974636820746F204C61796572FE
:1007600020302D390A47524156453A09537769746A
:10077000636820746F204C61796572203020286195
:100780006C7465726E617465290A423A094A756D26
:100790007020746F20426F6F746C6F616465720AB1
:1007A0004553433A094A756D7020746F20426F6F4C
:1007B000746C6F616465722028616C7465726E611F
:1007C0007465290A453A095072696E74204545508E
:1007D000524F4D2053657474696E67730A425350CB
:1007E0004143453A09436C65617220454550524F7B
:1007F0004D0A000A002575002E6E6B726F3A2000BC
:100800000A002575002E737761705F6261636B73F8
:100810006C6173685F6261636B73706163653A20DA
:10082000000A002575002E737761705F677261762C
:10083000655F6573633A20000A002575002E6E6FB0
:100840005F6775693A20000A002575002E7377618D
:10085000705F72616C745F726775693A20000A009C
:100860002575002E737761705F6C616C745F6C67C7
:1008700075693A20000A002575002E737761705F54
:100880007263746C5F726775693A20000A0025759F
:10089000002E737761705F6C63746C5F6C67756951
:1008A0003A20000A002575002E636170736C6F6337
:1008B0006B5F746F5F636F6E74726F6C3A20000AC7
:1008C000002575002E737761705F636F6E74726FB1
:1008D0006C5F636170736C6F636B3A20000A002574
:1008E000303258006B65796D61705F636F6E666959
:1008F000672E7261773A20000A002575002E6D6F11
:100900007573653A20000A002575002E6B657962C3
:100910006F6172643A20000A002575002E6D6174C3
:100920007269783A20000A002575002E656E6162B2
:100930006C653A20000A0025303258006465627503
:10094000675F636F6E6669672E7261773A20000A8F
:100950000025750064656661756C745F6C6179650E
:10096000723A20003F000A6D6F7573653A206F661A
:10097000660A000A6D6F7573653A206F6E0A000A89
:100980006B6579626F6172643A206F66660A000A6D
:100990006B6579626F6172643A206F6E0A000A6D4E
:1009A00061747269783A206F66660A000A6D617434
:1009B0007269783A206F6E0A000A64656275673A58
:1009C000206F66660A000A64656275673A206F6E7A
:1009D0000A000A0A4A756D70696E6720746F20629A
:1009E0006F6F746C6F616465722E2E2E2000433E13
:1009F0002000436C656172696E6720454550524F17
:100A00004D0A006565636F6E6669673A0A00290AD8
:100A1000002575002F002575005D28002564002045
:100A200000256400200025640020002564007C006F
:100A300025303258006D6F7573656B6579205B6288
:100A4000746E7C782079207620685D287265702F1E
:100A500061636C293A205B000A002530325820007F
:100A60006B6579626F6172645F7265706F72743A00
:100A700020000A0025303258006B6579626F617280
:100A8000645F7365745F6C65643A20004B657962DE
:100A90006F6172642073746172742E0A005B575D1B
:100AA000005B535D005B525D005B445D005B435D3A
:100AB000001C03610032003000300030005300653C
:100AC0000072006F00740069006E00610000001E7B
:100AD0000325004D0041004E0055004600410043F3
:100AE000005400550052004500520025000000044B
:100AF00003090409025B00030100A0FA09040000D5
:100B00000103010100092111010001224000070534
:100B1000810308000A090401000103000000092103
:100B200011010001227B000705820320000A09044D
:100B3000020002030000000921110100012222002D
:100B400007058303200001070503032000011201AC
:100B5000100100000008EDFE00000100010200018C
:100B60000631FF0974A1010975150026FF009520C3
:100B7000750881020976150026FF009520750891F9
:100B800002C005010902A10185020901A1000509B0
:100B90001901290815002501950875018102050133
:100BA000093009311581257F9502750881060938BC
:100BB0001581257F950175088106050C0A380215F7
:100BC00081257F950175088106C0C005010980A1B6
:100BD00001850319012AB700150126B70095017593
:100BE000108100C0050C0901A101850419012AA08A
:100BF00002150126A002950175108100C0050109AA
:100C000006A101050719E029E715002501950875DA
:100C10000181029501750881010507190029FF1559
:100C20000026FF00950675088100050819012905B1
:100C3000950575019102950175039101C00011247C
:100C40001FBECFEFD0E2DEBFCDBF04B603FE27C08C
:100C50008091DF039091E003A091E103B091E20362
:100C60008730904BA740B04BD1F41092DF03109225
:100C7000E0031092E1031092E20314BE84B7877F71
:100C800084BF0FB6F894A895809160008861809326
:100C90006000109260000FBEE0E0F0EF099512E0F6
:100CA000A0E0B1E0E6E1F9E500E00BBF02C007908B
:100CB0000D92AC32B107D9F723E0ACE2B2E001C04B
:100CC0001D92AF3DB207E1F70E947E260C94612C85
:100CD0000C940000FF93EF93E0912C02F0912D0211
:100CE000309709F00995EF91FF910895FC018591E6
:100CF000803011F0EFDFFBCF0895FF27E0E230E214
:100D000047FF0CC0419597FF09C0EDE260957095D3
:100D100080959095611D711D811D911D27FF02C059
:100D2000219530E350E2AA27660F771F881F991F8D
:100D3000AA1FA41710F0A41B63955A95A9F7AA300F
:100D400008F0A95FA05DAF93F3956115710581056A
:100D5000910541F7ED3211F4EF93F395F21718F482
:100D60003F93F395FBCF8F91B5DFFA95E1F70895A7
:100D7000E991F9918591803021F0853219F0AADF4F
:100D8000F9CF089520E0E89455915532C1F35033DE
:100D900011F4689455915A3348F4505390F3220F4C
:100DA000022E220F220F200D250FF4CF0EF42195D5
:100DB00089919991533619F3533729F1533559F1E4
:100DC000BC0188279927E8945C3621F48991999190
:100DD00068945591543639F446EF7EF077FF0DC094
:100DE0008FEF9FEF0AC055374AE039F0583540E1A0
:100DF00021F0523642E009F00895FF93EF937DDF32
:100E0000EF91FF91B7CFFF93EF93FC018191803079
:100E1000B9F360DFFBCFFF93EF9368DFF1CFDF9390
:100E2000CF93CDB7DEB72596A3DFCF91DF9108959D
:100E3000E4E6F0E080818F7D808314BC84E085BD92
:100E4000EEE6F0E080818160808308951092A9022F
:100E50001092AA021092AB021092AC020895209157
:100E6000A9023091AA024091AB025091AC02A8EEC7
:100E7000B3E00E94F12B24EF30E040E050E00E940C
:100E8000C62BCA01B90108951F921FB61F921124E3
:100E90008F939F93AF93BF938091A9029091AA02E1
:100EA000A091AB02B091AC020196A11DB11D80933F
:100EB000A9029093AA02A093AB02B093AC02BF9197
:100EC000AF919F918F911F901FBE1F9018958B9A85
:100ED0008C9A8D9A709A719A2F9A5D9A5E9A5F9AFF
:100EE0002FEF83ED90E3215080409040E1F700C068
:100EF00000008B988C988D98709871982F985D98B9
:100F00005E985F980895839A849A859A869A689ADB
:100F1000699A279A579A8E9A0E9418070C94670725
:100F20001416150634F48B9A4130510521F48C982F
:100F300006C08B98FCCF8C9A4230510511F48D98E5
:100F400001C08D9A233631F4662311F0709A08950A
:100F500070980895263629F0273649F0223669F030
:100F60000895662311F0719A089571980895662383
:100F700011F02F9A08952F980895662311F05F9A23
:100F800008955F9808956095709561707727880F30
:100F9000862B90910001981771F18093000191B315
:100FA000906C91BB90B3906C90BB8F989AE69A9599
:100FB000F1F700C08F9AEFE8F1E03197F1F700C048
:100FC000000028E030E087FF17C08F98880FFAE60E
:100FD000FA95F1F700C0F8948E98E19A78949AE621
:100FE0009A95F1F700C08E9AEAE6EA95F1F700C00B
:100FF0002150310941F708958F9AE8CF80B38F735C
:1010000080BB81B38F7381BB0E9426077F9B25C065
:101010000E942F076F38710581059105B8F38D9AED
:1010200081B3806C81BBF89480B3806C80BB8E9858
:10103000E19A78948AE68A95F1F700C08E9A80B397
:101040008F7380BB0E9426070E942F076F3871059F
:101050008105910540F77F99F7CF869A8E9A08957A
:101060000895869A8E980E9426070E942F07643F53
:10107000714081059105C8F38E9A08950F931F93CF
:10108000CF93DF93DB0111968C9111972C913BE06C
:10109000839FC00111248F5F9E4F820F911DFC0121
:1010A0000081E02FF0E0E05DFD4FD08112968C9141
:1010B0000236D1F4882321F0DD2391F010929202C0
:1010C000108180912E0290912F02D11124C0112302
:1010D00029F0019690932F0280932E02C1E023C045
:1010E00081E080939202ECCF882321F081E08D0F84
:1010F0008083E6CF8FEFFBCFD1110AC0112351F1CE
:101100006C2F70E0802F0E94C3070E94FE0722C050
:10111000111120C0F5CF1111E1CF019790932F024B
:1011200080932E02C0E040912E0250912F02202F7A
:10113000612F8D2F0E949007809193028823E1F206
:10114000809196028823C1F2809197028823A1F2B0
:101150000E94310881E0DF91CF911F910F91089596
:1011600081E008950C943E0808950C94B4081F93F0
:10117000CF93DF9300D000D00F92CDB7DEB7498375
:101180005A836B833091EA0289819A8131111DC0A3
:101190006623B9F02223A9F00E943021182F682F6E
:1011A00089819A810E94DC2069817A81812F0F9048
:1011B0000F900F900F900F90DF91CF911F910C9493
:1011C000C2090E940821182FEFCF0E9430216981A7
:1011D0007A81EDCFFC01262F40815181628173819C
:1011E00084810C94B708CF93DF93EC0160E00E94F8
:1011F000EA08BE01DF91CF910C94B5080E94292422
:101200000E947A22811102C00E941E230E94AF090F
:101210000C94CD0B0C94D00B08950E94461C0E9498
:101220000C092FEF84E39CE0215080409040E1F7CF
:1012300000C000000C94FE230F931F93CF93DF9305
:10124000EC0161E00E94EA088C01BE010E94B20834
:10125000882311F1BE01C8010E94A9158823E1F07D
:10126000BE01C8010E94FB158823B1F0BE01C80170
:101270000E941E17882381F08A81882341F1013062
:101280008CE5180779F00F3D8CE51807E9F001159A
:101290001C45E9F40E940D0980E0DF91CF911F9178
:1012A0000F91089590918D03892F8E7F90FF81601B
:1012B00080938D0380FF05C082EB91E00E9476064B
:1012C000EBCF80EA91E0FACF0E941E23E5CFCE015A
:1012D000DF91CF911F910F910C94B008829590E00F
:1012E0009C01220F331F220F331F2C7C959587956D
:1012F000959587958373282B30E0C901880F991F36
:101300008A7A359527952575822B0895CF93DF939B
:10131000D92F0E946E09C82F8D2F0E946E099C2F15
:10132000DF91CF91089508950C94930981E0089579
:10133000CF93C82F0E949609882349F0C0FF09C0A7
:101340005D9AC1FF08C05F9AC2FF07C05E9ACF9145
:1013500008955D98F6CF5F98F7CF5E98F8CF559ACD
:101360005D98579A5F98569A5E980895CF93C82FC4
:101370000E9494098C2FCF910C94980990E080E002
:1013800008950895972F70E02BE0929F600D711DD6
:101390001124FB0194E8899FE00DF11D1124EE0F4B
:1013A000FF1FE856FF4F859194910895FC01EE0FC1
:1013B000FF1FED53FE4F859194910895CF93DF93D6
:1013C0000E94C2090E94F30AEC01811520E59207F0
:1013D00008F042C0811530E4930708F0BDC0883E94
:1013E000910528F5803E910508F09DC0883A910549
:1013F00088F4853A910508F08FC08130910509F491
:1014000092C0009709F48FC0049708F08CC0D0E018
:10141000C0E089C08F3B910508F489C0805C9109C8
:10142000C03CD105A0F30E94D609EC017CC0811517
:10143000904250F4C11581E0D80708F074C0CD3E49
:10144000D10528F3D0656FC0C11590E3D90708F026
:1014500079C0CE019F70E7CF811525E5920758F539
:10146000811534E5930708F0A6C0811542E594077D
:1014700050F4C11581E5D80708F471C0DC2FCC27E2
:10148000C16FD06A50C0982F969596959E01237093
:101490003327C115D34508F07FC0C1E0D0E002C0BA
:1014A000CC0FDD1F2A95E2F720E2929FC0011124A4
:1014B000C82BD92B6FC0C11589E5D807A8F4C11571
:1014C00098E5D90708F07CC0C11526E5D20708F0D9
:1014D0009ECF8C2F0E948A0BC82FD0E0DC2FCC2708
:1014E000CC27DF71D0621FC0C1153AE5D30708F4DD
:1014F0006CC0CE0190568115904208F088CF8D2F98
:101500008F710E948A0B90E0982F882788279F71FF
:101510009C012C2BE901E6CFC55AD0E0C853DE4F21
:10152000C881D0E0D064CE01DF91CF910895C85A30
:10153000D0E0CC0FDD1FC656DE4F0990D881C02DFC
:10154000D464F1CFCE019927D3FF03C0EC01D86C4E
:10155000EACFEC01D06CE7CFDF70D06AE4CFCE01E8
:10156000E4E096958795EA95E1F783702C2F269510
:101570002695237090E2299F90011124382B8C2FFF
:101580008370C1E0D0E002C0CC0FDD1F8A95E2F786
:10159000C22BD32BDC68C7CFC1E0D0E002C0CC0F98
:1015A000DD1F2A95E2F730E2939FC0011124C82B7A
:1015B000D92BDA68B8CFD82FCC27C46FD06AB3CF75
:1015C000DC2FCC27C06FD06AAECF8C2F8F700E94DB
:1015D0008A0B34E0D695C7953A95E1F7CF709C2FEA
:1015E000EC01D069A0CF82389105B1F1B0F481331C
:1015F000910509F475C048F48932910509F469C070
:101600008A32910509F473C008958533910509F470
:1016100059C08933910501F10895833E9105A9F1DF
:1016200038F4803E9105F9F0823E910549F1089524
:10163000863E9105A9F1873E9105C9F1843E910549
:1016400019F52091D10321FF1FC08091D00384FDA3
:1016500014C087EE90E008952091D0032370A1F08C
:1016600080EE90E008952091D00320FD47C0309196
:10167000D10330FF09C024FF44C090E080E004C0E3
:101680002091D00322FDF7CF08952091D00322FDB1
:101690003BC03091D10330FDE3CF24FFF5CFEDCF38
:1016A0002091D00323FFF0CF24FDE7CFD2CF2091AC
:1016B000D00323FD2CC03091D10331FFEECF84EE57
:1016C00090E008952091D00325FFDECF89E290E0DD
:1016D00008952091D00325FFD7CF85E390E00895AA
:1016E0002091D00326FFD0CF8AE290E00895209188
:1016F000D00326FFC9CF81E390E0089589E390E00D
:10170000089583EE90E0089582EE90E0089586EECD
:1017100090E008959091D00392FF06C0282F287181
:101720002830F9F4877F846093FF06C0282F287142
:101730002831F1F4877E84612091D10320FF06C017
:10174000382F38713830D9F4877F816021FF06C087
:10175000282F28712831D1F4877E816194FD877EFE
:101760000895282F24712430F9F68B7F8860DCCF10
:10177000282F2471243101F78B7E8861DDCF382F2B
:101780003171313019F78E7F8860E0CF282F2171B9
:10179000213121F78E7E8861E1CF0C948307089573
:1017A0000C94CF0BE82FF0E0EE0FFF1FEC54FC4F32
:1017B000808191810895CF92DF92EF92FF920F93F3
:1017C0001F93CF93DF9383ED91E00E94760684EB25
:1017D000E82E83E0F82ED0E0C0E09EECC92E91E028
:1017E000D92E05EC11E0DF93CF93DF92CF920E94C8
:1017F0000F078BEC91E00E947606F70181919191A1
:101800007F010E9486099F938F931F930F930E94DD
:101810000F0783EC91E00E94760621968DB79EB764
:1018200008960FB6F8949EBF0FBE8DBFCC30D10581
:10183000D1F6DF91CF911F910F91FF90EF90DF9044
:10184000CF90089580EA8A95F1F7089500C0089531
:101850000C94220CF894E82FE295EF70F0E031A19F
:10186000282F2F7081E090E001C0880F2A95EAF7B9
:10187000982F9095932391A392A1892B82A378947A
:101880000895CF93DF93C6EDD1E089910E942A0C91
:1018900081E0C23ED807C9F7CBECD1E089910E9424
:1018A0002A0C81E0C63DD807C9F7ECE9F3E0A4EBC8
:1018B000B3E0119211921D921D9283E0E43BF80770
:1018C000C1F78CE00E94EC0CDF91CF910C94FE08E4
:1018D000AF92BF92CF92DF92EF92FF920F931F933E
:1018E000CF93DF9306ED11E0CCE9D3E0C12CD12CEE
:1018F000EE24E394F12CF80181918F01F894E82F04
:10190000E295EF70F0E021A18F70A70102C0440FB3
:10191000551F8A95E2F7CA01922F982B91A392A1A5
:101920008095892382A378940E94260CEBECF1E049
:1019300030E020E0B12CA12C4191A42FA295AF70F2
:10194000B0E090968C9190E04F7002C0959587958D
:101950004A95E2F780FD3BC0C701022E02C0880F06
:10196000991F0A94E2F7A82AB92A2F5F3F4F2B301C
:10197000310511F7F801319780810E942A0C5BE054
:10198000C5120E94280C88819981A816B90611F108
:10199000B982A88281E0D82AC39422968CE0C8122A
:1019A000AACF2D2D4CE064EB73E08CE993E00E940C
:1019B000ED0C0E940A098D2DDF91CF911F910F919F
:1019C000FF90EF90DF90CF90BF90AF90089590E0A0
:1019D00080E0C9CF80E0DFCF0895FF920F931F937F
:1019E000CF93DF93F82E092F162FD72FC42F222342
:1019F00049F081E08093AF020E94B3239093AE023E
:101A00008093AD028091AF028823A1F08091AD0256
:101A10009091AE020E94CB23069760F0EF2DF02F3D
:101A2000A12FBD2F90E080E0D0E08C179D0744F0FF
:101A30001092AF02DF91CF911F910F91FF90089507
:101A4000219131912D933D930196EFCF8AEE93E052
:101A50000E9476061F9281E08F931F9285E08F93FC
:101A60008CE993E09F938F930E940F070F900F9044
:101A70000F900F900F900F900895833009F445C098
:101A800028F4813061F0823049F10895853009F4FD
:101A90006AC008F451C0863009F47CC00895809172
:101AA0008C01482F460F5527551F4F3F510594F481
:101AB000680F60938C0180918C011F928F9385ED4C
:101AC00092E09F938F930E940F070F900F900F90BB
:101AD0000F9008958FEF80938C01EDCF80918B0153
:101AE000482F460F5527551F4F3F510554F4680F97
:101AF00060938B0180918B011F928F9383EC92E016
:101B0000E0CF8FEF80938B01F5CF80918A01482F32
:101B1000460F5527551F4F3F510554F4680F6093EA
:101B20008A0180918A011F928F9380EB92E0C9CF46
:101B30008FEF80938A01F5CF80918901482F460F5E
:101B40005527551F4F3F510554F4680F6093890185
:101B5000809189011F928F938BE992E0B2CF8FEF32
:101B600080938901F5CF80918601482F460F552734
:101B7000551F4F3F510554F4680F609386018091C3
:101B800086011F928F9382E892E09BCF8FEF809324
:101B90008601F5CF80918501482F460F5527551FA7
:101BA0004F3F510554F4680F609385018091850182
:101BB0001F928F9387E692E084CF8FEF8093850109
:101BC000F5CF8330C9F128F4813061F0823019F10A
:101BD0000895853009F452C008F43FC0863009F4F6
:101BE0005EC0089580918C01681790F4861B8093E5
:101BF0008C0180918C011F928F9388E592E09F93D6
:101C00008F930E940F070F900F900F900F900895E1
:101C100010928C01EECF80918B01681750F4861BD7
:101C200080938B0180918B011F928F9386E492E0C9
:101C3000E6CF10928B01F6CF80918A01681750F49D
:101C4000861B80938A0180918A011F928F9383E380
:101C500092E0D5CF10928A01F6CF80918901681762
:101C600050F4861B80938901809189011F928F9384
:101C70008EE192E0C4CF10928901F6CF8091860167
:101C8000681750F4861B80938601809186011F920D
:101C90008F9385E092E0B3CF10928601F6CF8091CA
:101CA0008501681750F4861B80938501809185011A
:101CB0001F928F938AEE91E0A2CF10928501F6CF0A
:101CC000CF93C82F1F928F938FEE94E09F938F93A3
:101CD0000E940F0761E070E080E090E004C0660FB2
:101CE000771F881F991FCA95D2F70E94DE1F0F9099
:101CF0000F900F900F90CF910C94461CCF93DF93D1
:101D00008B3109F4FAC108F09CC18B3009F4B8C1D9
:101D100008F06AC1863009F4C6C148F4853009F478
:101D20009EC184E699E00E94760680E0CCC18730AF
:101D300009F4CCC18830A9F783E09AE00E947606C6
:101D400084E599E00E9476060E9489221F928F9373
:101D500081E599E09F938F930E940F078FE499E0AC
:101D60000E9476060E948522C82F8CE399E00E948B
:101D700076061F92CF9387E399E09F938F930E94FB
:101D80000F0785E399E00E9476068BE299E00E94B6
:101D900076068C2F81701F928F9388E299E09F9333
:101DA0008F930E940F0786E299E00E9476068CE1ED
:101DB00099E00E947606C1FB882780F91F928F93D5
:101DC00089E199E09F938F930E940F0787E199E043
:101DD0000E9476068BE099E00E947606C2FB882777
:101DE00080F91F928F9388E099E09F938F930E94D0
:101DF0000F0786E099E00E9476068DEF98E00E943A
:101E00007606C3FBCC27C0F91F92CF938AEF98E0E8
:101E10009F938F930E940F0788EF98E00E947606A9
:101E20000E948D22EC0184EE98E00E947606DF93FA
:101E3000CF938FED98E09F938F930E940F078DEDC6
:101E400098E00E94760684EC98E00E9476068C2F3B
:101E500081701F928F9381EC98E09F938F930E94E3
:101E60000F078DB79EB780960FB6F8949EBF0FBE32
:101E70008DBF8FEB98E00E94760688EA98E00E947A
:101E80007606C1FB882780F91F928F9385EA98E038
:101E90009F938F930E940F0783EA98E00E94760633
:101EA00081E998E00E9476068D2F81701F928F93B2
:101EB0008EE898E09F938F930E940F078CE898E03C
:101EC0000E9476068AE798E00E947606D695D17041
:101ED0001F92DF9387E798E09F938F930E940F07ED
:101EE00085E798E00E94760683E698E00E947606F1
:101EF000C2FB882780F91F928F9380E698E09F931A
:101F00008F930E940F078EE598E00E9476068CE47E
:101F100098E00E947606C3FB882780F91F928F9372
:101F200089E498E09F938F930E940F0787E498E0DD
:101F30000E9476068DE398E00E947606C4FB88270F
:101F400080F91F928F938AE398E09F938F930E946A
:101F50000F0788E398E00E94760686E298E00E94E8
:101F60007606C5FB882780F91F928F9383E298E05D
:101F70009F938F930E940F0781E298E00E9476065C
:101F800085E098E00E947606C6FB882780F91F92BC
:101F90008F9382E098E09F938F930E940F078DB7F5
:101FA0009EB780960FB6F8949EBF0FBE8DBF80E09F
:101FB00098E00E94760688EF97E00E947606C7FBBD
:101FC000CC27C0F91F92CF9385EF97E09F938F9313
:101FD0000E940F0783EF97E00E9476060F900F9004
:101FE0000F900F9081E06FC0803109F49EC080F4A3
:101FF0008E3009F096CE90918D03892F8B7F92FFC2
:10200000846080938D0382FF8DC08FE899E081C04A
:10201000863109F49AC0893109F083CE8AE196E0CD
:102020000E94760686ED95E00E9476068FEB95E09D
:102030000E94760689E895E00E9476068DE595E097
:1020400021C08A3249F190F4873211F128F48E319F
:1020500008F467CE8D511DC0893209F062CE82ED41
:1020600099E00E9476060E940D09BCCF833468F483
:102070008A3308F0A1C0853359F0883309F051CE76
:1020800080E596E00E947606ADCF833409F049CE14
:1020900080E00E94600EA6CF82EF99E00E94760653
:1020A0000E941E239FCF80918D03807F80938D039C
:1020B00089E296E00E9476068EEE99E00E9476060E
:1020C00081E08093B102DF91CF91089590918D03CB
:1020D000892F8E7F90FF816080938D0380FF03C0E6
:1020E00086EC99E0CFCF89EB99E00E94760680914B
:1020F0008D03817F80938D0375CF90918D03892F00
:102100008D7F91FF826080938D0381FF08C08CEAF0
:1021100099E00E94760680918D038160EBCF8EE975
:1021200099E0B0CF8FE799E0ADCF90918D03892FE3
:10213000877F93FF886080938D0383FF03C083E7CD
:1021400099E0E7CF86E699E09DCF8FE495E00E9485
:1021500076060E944D171F928F9385E395E09F931B
:102160008F930E940F07809199011F928F938EE1A8
:1021700095E09F938F930E940F0780919B031F927E
:102180008F938BE095E09F938F930E940F070E949F
:10219000BF239F938F937F936F9384EF94E09F93DC
:1021A0008F930E940F078DB79EB742960FB6F89493
:1021B0009EBF0FBE8DBF16CF89536BCF80E00895B1
:1021C0000C94DE108E518A3030F4E82FF0E0EE519E
:1021D000FE4F8081089580E00895CF93C82F8091AD
:1021E000B1028130C1F0882339F0823009F447C050
:1021F0001092B10280E00DC00E94C5218232D1F759
:102200008C2F0E94DE1081111BC08C2F0E947E0E2D
:102210008170CF9108950E94C521823289F38C2F5D
:102220000E94E01081111BC0C431D9F060F4CB30A2
:1022300071F0C031D1F085EE94E00E94760613C0B3
:1022400081E090E0E5CFC93261F0C833A1F789E2BF
:1022500096E00E9476068BEE94E00E94760681E07E
:10226000D7CF1092B10280E0D3CF0E94260D87EE27
:1022700094E00E94760682E08093B102F0CFC432EF
:10228000C8F4CE3108F0BEC0CB30E1F040F4C73026
:1022900009F4CCC089E893E00E94760626C0C331D9
:1022A000C1F1C431B9F78091B002882351F1109285
:1022B000B0020AC0CB3409F4B7C0C8F4C93299F3EC
:1022C000C83341F70E94260D8091B002882309F49B
:1022D000C4C01F928F9383E893E09F938F930E94D3
:1022E0000F070F900F900F900F9081E092CFC135A4
:1022F00009F494C0C23509F48BC0CE3459F66AE0B3
:102300008EC088E993E00E94760681E08093B10256
:1023100080CF82E793E00E94760680E693E00E94F9
:10232000760680918C011F928F938DE593E09F93A9
:102330008F930E940F078BE593E00E94760689E455
:1023400093E00E94760680918B011F928F9386E422
:1023500093E09F938F930E940F0784E493E00E9481
:10236000760685E393E00E94760680918A011F92AB
:102370008F9382E393E09F938F930E940F0780E3F4
:1023800093E00E9476068FE193E00E9476068091AA
:1023900089011F928F938CE193E09F938F930E940A
:1023A0000F078AE193E00E94760685E093E00E94A1
:1023B0007606809186011F928F9382E093E09F932F
:1023C0008F930E940F0780E093E00E94760689EECB
:1023D00092E00E947606809185011F928F9386EE8F
:1023E00092E09F938F930E940F0784EE92E00E94E9
:1023F00076068DB79EB748960FB6F8949EBF0FBE6F
:102400008DBF62CF8C2F0E94E2108093B0025CCF10
:1024100061E08091B0020E943D0D56CF61E0809155
:10242000B0020E94E10D50CF6AE0F3CF8EE18093BD
:102430008C0182E380938B018AE080938A0184E19E
:102440008093890188E08093860188E280938501EA
:102450008BE893E00E94760637CF80E893E01CCFAC
:102460008091B80280FF12C060918A0185E0689F68
:10247000B00111247595679575956795603871055C
:10248000A8F561157105A1F1862F089581FF09C096
:1024900060918A0185E0689FB00111247595679568
:1024A000EDCF60918A0182FD0AC08091B702882336
:1024B000D1F09091890160918A01891728F085E017
:1024C000689FB0011124DACF869FB001112485E006
:1024D000869F9001879F300D1124692F70E0C901FC
:1024E0000E94B22BCBCF65E070E0CECF8FE708958E
:1024F00081E008958091B80280FF0CC06091860150
:1025000070E075956795759567956115710549F149
:10251000862F089581FF06C06091860170E0759551
:102520006795F3CF6091860182FD0BC09091B60252
:102530009923A1F06091850180918601961738F06A
:10254000682F70E06038710500F38FE70895899F68
:10255000C001112470E00E94B22BF4CF61E070E062
:10256000D7CF81E008958D3E31F40E9430128195DD
:102570008093BC0208958E3E19F40E943012F8CF69
:102580008F3E31F40E94301281958093BB020895F2
:10259000803F19F40E943012F8CF893F29F40E943D
:1025A0007A128093BD0208958A3F21F40E947A1224
:1025B0008195F7CF8B3F31F40E947A1281958093F9
:1025C000BE0208958C3F19F40E947A12F8CF9FE062
:1025D000980F983070F4815F990B21E030E001C0D2
:1025E000220F8A95EAF78091BA02822B8093BA0271
:1025F00008958D3F31F48091B80281608093B802D4
:1026000008958E3F21F48091B8028260F7CF8F3F0A
:10261000B9F78091B8028460F1CF4091BB028D3E42
:1026200059F48091BC0287FF0DC01092BC02411189
:102630000BC01092B70208C08E3E81F48091BC029C
:1026400018169CF3442381F08091BD029091BE0244
:10265000892B09F05AC01092B60208958F3E49F4B2
:1026600047FFF0CF1092BB028091BC028111ECCFEA
:10267000E0CF803F19F41416ACF3E4CF9091BD0283
:10268000893F29F41916F4F61092BD02DBCF8A3F78
:1026900019F497FFD7CFF8CF9091BE028B3F29F462
:1026A00097FFD0CF1092BE02CDCF8C3F19F41916F0
:1026B000CCF3C8CF9FE0980F983090F4815F990BCE
:1026C00021E030E0B90102C0660F771F8A95E2F77A
:1026D000CB0180959091BA0289238093BA02B2CF40
:1026E0008D3F31F48091B8028E7F8093B802AACFDB
:1026F0008E3F21F48091B8028D7FF7CF8F3F09F094
:10270000A1CF8091B8028B7FF0CF089580918D0387
:1027100083FF7EC085E39AE00E9476068091BA022C
:102720001F928F9380E39AE09F938F930E940F07ED
:102730008EE29AE00E9476068091BB02282F082E36
:10274000000C330B3F938F938BE29AE09F938F9310
:102750000E940F0789E29AE00E9476068091BC02EF
:10276000282F082E000C330B3F938F9386E29AE0BC
:102770009F938F930E940F0784E29AE00E9476064F
:102780008091BD02282F082E000C330B3F938F93AE
:1027900081E29AE09F938F930E940F078FE19AE066
:1027A0000E9476068091BE02282F082E000C330B63
:1027B0003F938F938CE19AE09F938F930E940F0732
:1027C00089E19AE00E9476068091B7021F928F936A
:1027D00086E19AE09F938F930E940F0784E19AE02D
:1027E0000E9476068091B8021F928F9381E19AE051
:1027F0009F938F930E940F078EE09AE00E947606C7
:102800008DB79EB74C960FB6F8949EBF0FBE8DBF86
:102810000E94B3239C019091BB028091BC02982B33
:1028200021F03093B5022093B4029091BD028091C3
:10283000BE02982B21F03093B3022093B20289EBB1
:1028400092E00C94A517EF92FF920F931F93CF93F2
:10285000DF9300D000D000D0CDB7DEB786E0E9EB43
:10286000F2E0DE01119601900D928A95E1F7E09079
:10287000BB02F090BC020091BD021091BE0210920A
:10288000BB021092BC021092BD021092BE028E2DAD
:102890008F2991F08091B4029091B5020E94CB23D0
:1028A000AC019091B702992309F43FC080918B014C
:1028B0008417150608F447C0802F812B91F0809172
:1028C000B2029091B3020E94CB23AC019091B60268
:1028D000992309F477C0809187018417150608F4BD
:1028E0007FC08091BB029091BC02892B9091BD0268
:1028F000892B9091BE02892B11F00E94861386E0ED
:10290000FE013196A9EBB2E001900D928A95E1F7B4
:1029100026960FB6F894DEBF0FBECDBFDF91CF91E4
:102920001F910F91FF90EF90089520918C018AE004
:10293000289F900111242417350708F0BDCF9F5F11
:102940009093B70202C09F3FD1F7EE2059F00E944A
:1029500030129FEF1E140CF491E0899F802D1124FA
:102960008093BB02FF2059F00E9430129FEF1F148A
:102970000CF491E0899F802D11248093BC0230914A
:10298000BB02332309F498CF2091BC02222309F41F
:1029900093CF45EB3403C0011124992359F0909350
:1029A000BB0245EB240390011124332339F030930B
:1029B000BC0282CF81E08093BB02F3CF81E08093A1
:1029C000BC027ACF209188018AE0289F90011124CF
:1029D0002417350708F085CF9F5F9093B60202C099
:1029E0009F3FD1F7002359F00E947A129FEF1016F3
:1029F0000CF491E0899F802D11248093BD02112356
:102A000059F00E947A129FEF11160CF491E0899F01
:102A1000802D11248093BE023091BD02332309F42E
:102A200060CF2091BE02222309F45BCF45EB340333
:102A3000C0011124992359F09093BD0245EB240362
:102A400090011124332339F03093BE024ACF81E044
:102A50008093BD02F3CF81E08093BE0242CF86E037
:102A6000E9EBF2E0DF011D928A95E9F71092B702D7
:102A70001092B6021092B80208950F931F93CF934D
:102A8000DF93C42FD22FFC0182818823C9F04093A9
:102A9000C1020E94B3239093C0028093BF0280E2E0
:102AA0008C0F883008F050C0C77081E001C0880FDB
:102AB000CA95EAF7DF91CF911F910F910C94CD1930
:102AC0001091C102141335C08091BF029091C002D1
:102AD0000E94CB23883C910560F5C0E2CD0F1D1705
:102AE000B9F080E2810F883040F4177081E001C0B6
:102AF000880F1A95EAF70E94D419C83048F481E08B
:102B00009D2F977001C0880F9A95EAF70E94CD1902
:102B1000802F0E94C519C830B8F4D77081E001C079
:102B2000880FDA95EAF7DF91CF911F910F910C94FE
:102B3000D41980E28C0F883038F4C77081E001C06E
:102B4000880FCA95EAF7EFCFDF91CF911F910F91D0
:102B500008950F939C01CB01243F4CE5340759F1B4
:102B6000A8F4293DFCE53F0701F12A3D4CE5340777
:102B7000D1F1283D3C4591F406E221EE41EE68EDAD
:102B80007CE50E943D1580E00F910895263FFCE50D
:102B90003F07E9F0B0F0273F3C45F9F0FC018281A6
:102BA000882339F11092C102EFCF07E225EE45EEFE
:102BB00069ED7CE5E6CF06E221EE40EE64EF7CE5D0
:102BC000E0CF07E225EE44EE65EF7CE5DACF06E2E2
:102BD00021EE42EE66EF7CE5D4CF07E225EE46EE2D
:102BE00067EF7CE5CECF08E221E045EE6AED7CE5BB
:102BF000C8CF81E0C9CFCF93DF93EC01FB01828185
:102C0000882309F419C1C230FCE5DF07C0F1C631E1
:102C10009CE5D90730F09E012B5F3C4529303105FA
:102C200070F50E948D229093D1038093D003C03120
:102C3000ECE5DE0709F4CFC008F05BC0C8308CE5D6
:102C4000D80709F4B6C088F5C430ECE5DE0709F40E
:102C5000A8C0C0F4C2308CE5D80709F49CC08091AC
:102C6000D0038260C330DC4509F498C08091D00362
:102C70009091D1030E949B220E94461C80E0DF912C
:102C8000CF9108958091D0038061C630ECE5DE07D6
:102C900009F484C08091D0038860C730DC4508F413
:102CA0007DC08091D003806279C0CC308CE5D8079C
:102CB00009F489C070F48091D0038C60CA30ECE5CF
:102CC000DE0709F46BC008F478C08091D0038E7FD2
:102CD00065C0CE308CE5D80709F479C08091D00367
:102CE0008B7FCF30DC4508F459C08091D0038F7EB4
:102CF00055C0CC3FECE5DE0709F457C030F5C331D1
:102D00008CE5D80709F46FC078F4C131ECE5DE0733
:102D100009F465C0C231DC4509F0A8CF0E94461C09
:102D20008091D0038F773AC0C5318CE5D80709F47C
:102D300062C008F476C08091D1038160CB3FDC454E
:102D400009F094CF8093D10391CFC115FDE5DF0742
:102D500009F44DC088F48091D1038D7FCE3F9CE56E
:102D6000D90781F38091D1038E7FCF3FDC4550F3AB
:102D70008091D1038360E6CFC230FDE5DF0709F41F
:102D800059C008F444C080E0C330DD4509F06ECF7F
:102D90000E9420236BCF8091D00381608093D00369
:102DA00065CF8091D0038460F9CF8091D103826098
:102DB000C9CF8091D0038064F1CF0E94461C8091DE
:102DC000D0038068EBCF8091D0038D7FE7CF8091D7
:102DD000D003877FE3CF8091D0038F7DDFCF8091B9
:102DE000D0038F7BDBCF8091D003837FD7CF8091BF
:102DF000D1038C7FA7CF8091D00382FB992790F9D4
:102E000021E0922790FB82F990FB83F9C7CF809154
:102E1000D103982F909591708E7F892B90FB81F92B
:102E200091CF0E94461C9091D003892F97FB87F980
:102E30008058B4CF81E0ACCF81E021CFCF93DF9336
:102E4000EB0186319C4511F50E94C5219A81992399
:102E500099F08A7A91E009F490E09093C20281118E
:102E600009C089E20E94A0210E94112280E0DF9126
:102E7000CF91089585E3F6CF8091C202811104C0FD
:102E800089E20E94A721F0CF85E3FBCF81E0EFCF5D
:102E90009093C8028093C7020895E091C702F09111
:102EA000C802309721F00190F081E02D099480E074
:102EB0000895EF92FF920F931F93CF93DF938C01AE
:102EC000E091C702F091C8023097C1F10280F3810E
:102ED000E02D099580918D0382FF30C080FF04C0F2
:102EE00080E69AE00E947606D0E0C0E08AE5E82E0F
:102EF0008AE0F82E80918D0380FF0EC0F801EC0F60
:102F0000FD1F80811F928F93FF92EF920E940F0707
:102F10000F900F900F900F902196C830D10551F768
:102F200080918D0380FF0AC088E59AE0DF91CF9100
:102F30001F910F91FF90EF900C947606DF91CF9147
:102F40001F910F91FF90EF900895E091C702F091CB
:102F5000C802309739F022E0DC012C930480F5811F
:102F6000E02D099408952091C5023091C6022817DA
:102F7000390771F09093C6028093C502E091C702B1
:102F8000F091C802309721F00680F781E02D099476
:102F900008952091C3023091C4022817390771F0B7
:102FA0009093C4028093C302E091C702F091C802DB
:102FB000309721F00084F185E02D099408950E9456
:102FC000BF236093E6027093E7028093E802909338
:102FD000E9026093E2027093E3028093E40290932B
:102FE000E502089585B7806885BF85B7806885BF8D
:102FF0000895089508950C94F91708950C94FD17F9
:103000000E94F2178CE196E20E9422240E94FA1795
:103010000C94FB1781E008950C940A1808950E94FF
:10302000AA230E94410C0E9440240C94FE17CF93C7
:10303000C82F80918D0382FF1EC080FF1CC089E7CE
:103040009AE00E94760680918D0380FF14C01F9243
:10305000CF9384E79AE09F938F930E940F0780910C
:103060008D030F900F900F900F9080FF04C082E7A8
:103070009AE00E9476068C2FCF910C94B6098F921D
:103080009F92AF92BF92CF92DF92EF92FF920F93F7
:103090001F93CF93DF93CDB7DEB72A970FB6F8947F
:1030A000DEBF0FBECDBF0E940E180E9430080E94E6
:1030B000680C81110E94DF175AEC852E52E0952E84
:1030C00010E000E0A02E802F0E94D20B6C01F401D2
:1030D000E190F1904F01E816F90609F45CC0809187
:1030E0008D0381FD0E94DB0BC7018C259D25B12C32
:1030F000EE24E394F12C9C012E213F21232B09F493
:1031000044C00E940C188823A9F0BE82AF82CE2052
:10311000DF2081E0CD2809F480E088870E94B32376
:103120008160782F9A8789874E815F8168858A853B
:103130000E94F518000F111FF801E653FD4F808122
:103140009181E826F926F182E0820E9423140E94F0
:103150004D179091C9028917A9F10E944D178093CC
:10316000C9022A960FB6F894DEBF0FBECDBFDF911D
:10317000CF911F910F91FF90EF90DF90CF90BF9074
:10318000AF909F908F900C941718B394EE0CFF1C87
:10319000FBE0BF12B0CF0F5F1F4F0C30110509F0DD
:1031A00091CF8FEF89838A831B820E94B323816032
:1031B000782F9D838C8349815A816B818D810E94F8
:1031C000F518C3CF2A960FB6F894DEBF0FBECDBF59
:1031D000DF91CF911F910F91FF90EF90DF90CF90F3
:1031E000BF90AF909F908F900895DF92EF92FF92E3
:1031F0000F931F93CF93DF93CDB7DEB72B970FB607
:10320000F894DEBF0FBECDBF7A878B87F42E052FD3
:10321000162FE72ED82E61110E94E5211E821D82F5
:103220007E2DEC82DD824F2D502F612F8D2D9E81C2
:103230002B960FB6F894DEBF0FBECDBFDF91CF91B6
:103240001F910F91FF90EF90DF900C94BC1EFC013A
:10325000808191810C947221CF93C82F882309F427
:103260004CC08CEF8C0F813AC8F48C2F0E94ED106B
:10327000811143C06C2F80918D0190918E010E942D
:103280003723882329F08C2F0E94A7210E94112226
:103290008C2F0E94A021CF910C94112280E28C0FE0
:1032A000883048F4C77081E001C0880FCA95EAF7FA
:1032B0000E94C821F0CFEBE5EC0FE33040F4F0E0E2
:1032C000E65EFD4F808190E0CF910C94B317E8E566
:1032D000EC0FE73150F4F0E0EE0FFF1FE451FE4F2A
:1032E00080819181CF910C94C917CD3E30F08C2F05
:1032F0000E94B312CF910C948613CF910895882326
:1033000061F19CEF980F913A20F40E94A7210C9450
:10331000112290E2980F983050F4877091E001C02C
:10332000990F8A95EAF7892F0E94CE21F0CF9BE56D
:10333000980F933020F490E080E00C94B31798E558
:10334000980F973120F490E080E00C94C9178D3EDF
:1033500020F00E940D130C94861308951F93CF93B1
:10336000DF93182FEB010E942C19209731F4812F45
:10337000DF91CF911F910C947F198FE99FE0019706
:10338000F1F700C000002197F0CF70E060E08933D2
:1033900011F460E570E00C94AE19882321F00E94CE
:1033A000C8210C9411220895882321F00E94CE2177
:1033B0000C9411220895BF92CF92DF92EF92FF9268
:1033C0000F931F93CF93DF936C01D62FC72FFC0170
:1033D0001281058102950F700E94BE21E82E88237C
:1033E000A1F0E12E112389F08C2F807F803429F009
:1033F00080E28D0FE12C883040F082E00E945C2258
:103400000E94BE2191E0E82EE926BC2EB2949FE0F6
:10341000B922EB2DF0E0ED59F34D0C94E82B0C2F75
:103420000F70C07F11F00295007F1123A9F00023D7
:1034300059F080E28D0F883010F0D11109C0802F33
:103440000E94C8210E9411228D2F0E942C1914C0A5
:10345000802F0E94D821F6CF8D2F0E947F19002344
:1034600059F080E28D0F883010F0D1112CC0802FE0
:103470000E94CE210E9411222B2D2850330B243084
:10348000310520F40E944D170E94B609EE2009F480
:103490009EC10E94BA2180FD9AC1F60112820E944B
:1034A000B4210E944020C6010E94081C0E94B42141
:1034B000DF91CF911F910F91FF90EF90DF90CF9010
:1034C000BF900C946120802F0E94DE21D3CFFC2F6F
:1034D000FF70FF2EC07FC03219F0F29480EFF82207
:1034E000DD2369F0D13049F1112391F1002351F12D
:1034F000F601858180FFA8CF8F70858323C01123BB
:1035000081F0011106C00E94F8218F290E94CD1977
:10351000B3CF0130C1F70E94F8218F290E94FE210C
:10352000ABCF011106C00E9407228F2D0E94D41933
:10353000A3CF013009F4A0CFF6CF112329F0063034
:1035400008F09ACF8F2DE2CF053008F095CFEDCF60
:10355000002359F3D93349F4FFEF27EE33E0F1505C
:1035600020403040E1F700C000008D2F0E947F19FD
:1035700083CF8C2F86958695837069F0813009F012
:103580007BCF8D2F9C2F9370111102C090E080E0B3
:103590000E94C91771CF8D2F9C2F9370111102C0FB
:1035A00090E080E00E94B31767CF8D2F112329F0A0
:1035B0000E94B3120E9486135FCF0E940D13FACFB0
:1035C0008C2F837009F041C0111156CF4D2F4295B9
:1035D00046954770440F440F0D2F0F7010E030E0F8
:1035E00020E0042E04C0000F111F221F331F0A9475
:1035F000D2F760E070E0CB01D4FF0FC06FE070E065
:1036000080E090E004C0660F771F881F991F4A95DD
:10361000D2F76095709580959095C695C695C370C4
:10362000602B712B822B932BC23049F058F4C130A0
:1036300019F00E94F21F20CF0E94E01F1DCF0E94B0
:1036400004201ACF0E94DE1F17CF8695112311F098
:103650008C2F8170882309F40FCF4D2F429546950A
:103660004770440F440F0D2F0F7010E030E020E042
:10367000042E04C0000F111F221F331F0A94D2F71B
:1036800060E070E0CB01D4FF0FC06FE070E080E03D
:1036900090E004C0660F771F881F991F4A95D2F7E4
:1036A0006095709580959095C695C695C370602B72
:1036B000712B822B932BC23049F058F4C13019F092
:1036C0000E94B720D9CE0E94A520D6CE0E94C92044
:1036D000D3CE0E941A20D0CECF70112329F08C2F88
:1036E0000E9440208D2F12CF8D2F0E94D4198C2F35
:1036F0000E946120C1CED23F89F160F4D03FC9F071
:10370000D13F29F1112309F442C001119DCE8C2F24
:103710008F7121C0D33F39F1D43FA1F7112369F153
:10372000CF718C2F0E94402063E08C2F0E94472293
:10373000A3CE112341F0053008F09ECE8C2F8F715F
:103740000E94842099CE063008F096CEF7CF8C2FB9
:103750008F71112369F20E9440208ECE8C2F8F71C1
:103760001123C9F3C5CF112329F08C2F8F710E942B
:103770002B2082CE0E9426207FCE81E00E945C22F8
:10378000023008F479CE82E00E945C2275CE0023DC
:1037900059F0D93309F0E9CE8FEF97EEE3E081508D
:1037A0009040E040E1F7DFCE8C2F8F71A1CF4C2FFE
:1037B0004F706D2FC6010E94BE090E94561F5CCE3D
:1037C0004C2F4F706D2FC6010E94C10955CEDF915D
:1037D000CF911F910F91FF90EF90DF90CF90BF900E
:1037E00008950F931F93CF93DF93EC016881798144
:1037F0008A810E947C218C010E94DB200E94DD1FB7
:10380000B801CE01DF91CF911F910F910C94DB197C
:10381000CF93DF93EC018B819C81892B29F08881E8
:10382000998189238F3F59F4DF91CF910895CE017B
:103830000E94F11BCE01DF91CF910C94F308CE01D1
:103840000E941C098111F3CF0E94BE21882361F3DD
:103850008A81882349F382E0DF91CF910C945C2226
:1038600090E080E00E94B31790E080E00E94C917CA
:103870000E94E5210E94F5210E9411220E942F152D
:103880000C9486130E94AE210C94301C0E94D5210A
:103890000C94421CE92FE295EF70E250EE3070F488
:1038A000F0E0ED58F34D0C94E82B803F19F020F434
:1038B000883E20F481E00895843FE1F380E008959C
:1038C000883EC0F3813FD1F7F5CF93FB882780F97D
:1038D00008950E9472210C944A1CCF93DF9300D06C
:1038E00000D00F92CDB7DEB70F900F900F900F90D2
:1038F0000F90DF91CF910895CF93DF9300D000D048
:1039000000D0CDB7DEB726960FB6F894DEBF0FBE57
:10391000CDBFDF91CF9108951F93CF93DF93C091D7
:10392000EB0216E08091EC028C1304C0DF91CF9182
:103930001F910895D0E01C9FF0011D9FF00D1124F0
:10394000E351FD4F40815181628173818481958172
:103950000E947C1C2196C770E5CF40911D035091B9
:103960001E0360911F0370912003809121039091A9
:1039700022030C947C1C1F93CF93DF93809122032E
:10398000807FA9F480911F03882389F08091EB0246
:10399000C091EC0260911D0370911E03A091200361
:1039A000B0912103D62FD72316E0C81304C0DF91AE
:1039B000CF911F91089590E0109711F0DF3F19F417
:1039C00001968770F2CF189F9001199F300D112436
:1039D000F901E351FD4F41814713F2CF4081461376
:1039E000EFCF42814111ECCF438154814A1B5B0BE5
:1039F000483C510528F7809122038F7080618093A5
:103A00002203F901EE50FD4F80818F708061808329
:103A10008DE193E00E94081CDF91CF911F910C94DF
:103A20008C1CAF92BF92CF92DF92EF92FF920F93D6
:103A30001F93CF93DF93CDB7DEB761970FB6F8949E
:103A4000DEBF0FBECDBF8C0185E0F801DE011D9603
:103A500001900D928A95E1F7F80140815181E28051
:103A60008DE1C82E83E0D82E609120037091210350
:103A70006115710509F461C190911D0320911E0328
:103A8000892F82238F3F09F458C1A380B480F0901E
:103A90001F03F501E61BF70BFF2009F4FCC0809122
:103AA0002203382F307FE83CF10508F0B2C0311115
:103AB00079C0FE2C251323C0941321C0E1101FC030
:103AC0008F708061809322030E94AD1CC6010E940A
:103AD000081C80912203F80185838F2D61960FB613
:103AE000F894DEBF0FBECDBFDF91CF911F910F9134
:103AF000FF90EF90DF90CF90BF90AF900895AB28EC
:103B000029F0842F85238F3F09F033C180E0F82FFF
:103B1000F170DF2E80FF3CC08091EB022091EC021F
:103B200036E0821315C04D875E878D859E850E9485
:103B30007221292F22952F702230F0F0243018F5B1
:103B40009F70F1F0F8019581907FD1F4D12C1EC0C7
:103B500090E0389FF001399FF00D1124E351FD4FA3
:103B60006181651306C06081641303C062816E11B8
:103B70000FC001968770D5CF9F7011F0882331F365
:103B8000805E883018F3C8010E94081CFD2CA5CF68
:103B9000EE2009F4A2CF809122038160809322035A
:103BA000F12C9BCF251306C0941304C0F801EE201E
:103BB00009F48DC04D875E878D859E850E94691CA6
:103BC000882319F1EE2009F180912203803270F0F0
:103BD00020911D0330911E0338872F831986BB86E1
:103BE000AA868C87CE0107960E94081C86E0F80101
:103BF000ADE1B3E001900D928A95E1F70E94BB1C04
:103C00000E94AD1CFF24F39468CFC8010E94081CD9
:103C1000F9CF311113C07A2DB98AA88A6E2D8989FE
:103C20000E946D1C8DE193E00E94081C86E0F60165
:103C300011928A95E9F70E94AD1CB2CF25130FC0EF
:103C400094130DC0E1100BC0F8018583C8010E94D8
:103C5000081C86E0F60111928A95E9F73ECF4D8760
:103C60005E878D859E850E94691C882371F2EE20F7
:103C700061F280912203803208F4B8CF20911D03B5
:103C800030911E033A8329831B82BD82AC828E83CE
:103C9000CE010196A9CFE83CF10508F041C0FE2C09
:103CA000EE2009F4B2CF25132AC0941328C08091C6
:103CB000220380FD1BC0982F907FC1F0F8018583FF
:103CC000903F31F0982F907F905F8F70892B858384
:103CD000C8010E94081C86E0F801ADE1B3E0019044
:103CE0000D928A95E1F70E94AD1CF7CE86E0F801AF
:103CF000ADE1B3E001900D928A95E1F7EECE4D87EC
:103D00005E878D859E850E94691C81116FCF809191
:103D10002203816080932203C8010E94081CDDCE2B
:103D20007A2DB98AA88A6E2D89890E946D1C86E039
:103D3000F60111928A95E9F7D6CFEE2009F465CF06
:103D40004D875E878D859E850E94691CF82E88238D
:103D500009F45BCF86E0F801ADE1B3E001900D928C
:103D60008A95E1F78DE193E00E9427190E94BB1C20
:103D7000BACF81E08E25CBCE1F93CF93DF93CDB703
:103D8000DEB72C970FB6F894DEBF0FBECDBF4F83C2
:103D9000588769877A878B879C87CE0107960E9410
:103DA000111D882369F08A859B85892B39F04F8105
:103DB0005885842F85238F3F09F071C016E05FC0BE
:103DC00086E0FE013796DE01119601900D928A95EC
:103DD000E1F78A859B85892B89F38F8198858923D3
:103DE0008F3F61F32091EC0230E0C90101968770AA
:103DF00099274091EB024817190671F40E94461C5E
:103E00001092EC021092EB0286E0EDE1F3E0DF01AC
:103E10001D928A95E9F7D2CF96E0929FD001939FA9
:103E2000B00D1124A351BD4FFE01319601900D92AA
:103E30009A95E1F78093EC020E948C1CBFCF819F82
:103E4000C001112483519D4F0E94111D8823E9F068
:103E5000E091EB021E9FF0011124E351FD4F4081E0
:103E6000518162817381848195810E947C1C809143
:103E7000EB0290E00196877099278093EB02809186
:103E8000EB029091EC028913DACF2C960FB6F894DE
:103E9000DEBF0FBECDBFDF91CF911F910895698521
:103EA0007A858B859C850E947C1C88CFEF92FF923F
:103EB0000F931F93CF93DF938C01892B81F0F12C0B
:103EC000EE24E394E8012196F8018491843770F49C
:103ED000843008F05FC08130B1F08230A1F1DF9111
:103EE000CF911F910F91FF90EF900895853709F4BE
:103EF0004CC008F43DC09CE7980F903780F78F774F
:103F00000E947F1949C00E5F1F4FFE01849190E20D
:103F1000980F983060F48770FE2D01C0FF0F8A95CE
:103F2000EAF78F2F0E94E8210E94112202C00E940E
:103F30002C198F2D815030F2EFE9FFE03197F1F726
:103F400000C00000F7CF0E5F1F4FFE01849190E28A
:103F5000980F983050F48770FE2D01C0FF0F8A959E
:103F6000EAF78F2F0E94EE21DFCF0E947F19E1CF69
:103F70000E5F1F4FFE01C491C150D8F28FE99FE040
:103F80000197F1F700C00000F7CF0E5F1F4FFE0151
:103F9000F490CFCF0E942C198E01CBCF08950C94B2
:103FA000CE1F0E94CF1F60937C0370937D0380938C
:103FB0007E0390937F030C94301C08950C94D11FC2
:103FC0000F931F9300917C0310917D0320917E033A
:103FD00030917F03602B712B822B932B1F910F91BC
:103FE0000C94D11F0F931F9300917C0310917D03BC
:103FF00020917E0330917F036023712382239323DA
:104000001F910F910C94D11F0F931F9300917C036C
:1040100010917D0320917E0330917F0360277127EB
:10402000822793271F910F910C94D11F0C94CE1FC0
:104030000C9416200E9418206093780370937903E3
:1040400080937A0390937B030C94301C60E070E0C3
:10405000CB010C941A200F931F9341E050E060E0D5
:1040600070E08A019B0104C0000F111F221F331F43
:104070008A95D2F7C901B8011F910F910C941A20AB
:104080000F931F9341E050E060E070E004C0440FE4
:10409000551F661F771F8A95D2F7809178039091FC
:1040A0007903A0917A03B0917B038A019B01082BCD
:1040B000192B2A2B3B2BC901B8011F910F910C948E
:1040C0001A200F931F9341E050E060E070E004C0BD
:1040D000440F551F661F771F8A95D2F7CB01BA018F
:1040E0006095709580959095009178031091790373
:1040F00020917A0330917B036023712382239323E1
:104100001F910F910C941A200F931F9341E050E0E0
:1041100060E070E004C0440F551F661F771F8A954A
:10412000D2F78091780390917903A0917A03B091AE
:104130007B038A019B01082719272A273B27C901EE
:10414000B8011F910F910C941A200F931F930091A7
:1041500078031091790320917A0330917B03602BCF
:10416000712B822B932B1F910F910C941A200F937C
:104170001F93009178031091790320917A03309175
:104180007B0360237123822393231F910F910C944F
:104190001A200F931F9300917803109179032091B7
:1041A0007A0330917B0360277127822793271F9121
:1041B0000F910C941A2008952BE0929F800D1124EA
:1041C000982F977041E001C0440F9A95EAF78695C1
:1041D0008695869595E0899FF0011124ED5DFC4F51
:1041E00090E080E070E05191DF0111979B01082E73
:1041F00002C0369527950A94E2F72170219525276C
:10420000242325272C9301968530910561F7089585
:104210002BE0929F800D1124982F9770869586959C
:10422000869525E0829FF0011124ED5DFC4F50E062
:1042300040E080E0219130E0092E02C036952795BC
:104240000A94E2F721703327042E01C0220F0A944A
:10425000EAF7822B4F5F5F4F4530510559F70895BC
:10426000BF92CF92DF92EF92FF920F931F93CF9363
:10427000DF938C01C0907803D0907903E0907A03AB
:10428000F0907B0380917C0390917D03A0917E034D
:10429000B0917F03C82AD92AEA2AFB2ACFE1D0E0CD
:1042A000BC2ED701C6010C2E04C0B695A7959795D4
:1042B00087950A94D2F780FD0EC0219788F7B12C1C
:1042C0008B2DDF91CF911F910F91FF90EF90DF9099
:1042D000CF90BF900895B8018C2F0E94DE090197FE
:1042E00061F3EECFCF93DF93EC010E943021BE014A
:1042F000DF91CF910C94DE091F93CF93DF93EB01F5
:104300009091EA02992331F0CB01DF91CF911F9177
:104310000C947221882379F0CB010E943021182F50
:10432000682FCE010E94DC20BE01812FDF91CF914A
:104330001F910C94DE09CB010E940821182FF4CFA5
:10434000682F80918D0190918E010C946D23682FC0
:1043500080918D0190918E010C946F2380918D013D
:1043600090918E010C9471238091800385958595A1
:1043700085950895809180038770089590918003BA
:10438000977081E009F480E0089580918C0308958E
:1043900090918C03892B80938C0308958095909144
:1043A0008C03982390938C03089510928C030895A6
:1043B00090918B03892B80938B0308958095909126
:1043C0008B03982390938B03089510928B03089589
:1043D00090918A03892B80938A0308958095909108
:1043E0008A03982390938A03089510928A0308956C
:1043F00080918103089508950C94FB21909181038D
:10440000981721F0809381030C94FC2108958091EA
:104410008103882329F01092810380E00C94FC2111
:104420000895E0918D01F0918E0180918C0380833D
:10443000E0918D01F0918E01808190918B03892B09
:104440008083E0918D01F0918E01808190918A03AB
:10445000892B808390918103992381F0E0918D01D4
:10446000F0918E018081892B808380918D019091C4
:104470008E010E94252381110E94072280918D01C7
:1044800090918E010C94591708950C94442298E051
:10449000899F90011124622B609380030E94402029
:1044A000809180038595859585950C944522109281
:1044B000800380E00C9445229091800380958923AD
:1044C00080938003282F277071F4282F082E000C6A
:1044D000330B9217130639F08595859585950E94C3
:1044E00061200C94572208956FEF7FEF90E080E0F9
:1044F0000C944B2C90E080E00E94272C21E08B3E16
:104500009E4F09F020E0822F089582E090E00C9405
:104510001F2C83E090E00C941F2CCF9384E090E05C
:104520000E941F2CC82F81E290E00E941F2C982F20
:104530008C2FCF910895CF93C92F682F84E090E0FE
:104540000E942D2C6C2F81E290E0CF910C942D2CA9
:10455000AB01BC018FE090E00C943F2CAB01BC019F
:1045600083E190E00C943F2C60E070E0CB010C9470
:10457000AE2260E070E0CB010E94A8220C94B4222D
:104580006BEE7EEF90E080E00E944B2C60E082E0DA
:1045900090E00E942D2C60E083E090E00E942D2CA2
:1045A00010927C0310927D0310927E0310927F0381
:1045B00060E084E090E00E942D2C60E081E290E0D9
:1045C0000E942D2C60E085E090E00E942D2C60E0A0
:1045D00086E090E00E942D2C6FEF87E090E00E9433
:1045E0002D2C40E050E0BA0188E090E00E943F2C82
:1045F00060E08DE090E00E942D2C40E050E0BA0198
:1046000088E190E00E943F2C60E087E190E00E940A
:104610002D2C40E050E0BA018CE190E00E943F2C4C
:1046200060E080E290E00E942D2C40E050E0BA0172
:1046300088E190E00E943F2C0C94B9220C94C02297
:10464000682F8EE090E00C942D2C9C012E5F3F4F44
:10465000AC01485F5F4F80E02417350709F40895E7
:10466000F90191919F019923B9F38F5FF5CF6623EB
:1046700049F0FC01329608962191261729F0E81797
:10468000F907D1F780E0089581E008959C01FC01CD
:1046900032969FEF80E04191461751F09F3F19F409
:1046A000411101C0982F8F5F8630A9F79F3F09F411
:1046B0000895290F311D97FD3A95F90162830895F8
:1046C000FC01329608962191261303C0DF01119751
:1046D0001C92E817F907B9F708950C9446230C9437
:1046E0006023029626E0FC0111922A95E9F70895CD
:1046F00008950C9478230E94461C0E944D170E9436
:10470000B6090C9479231F921FB61F9211248F9320
:104710009F93AF93BF9380918E03811113C08091BB
:10472000CC039091CD03A091CE03B091CF034196DD
:10473000A11DB11D8093CC039093CD03A093CE0314
:10474000B093CF03BF91AF919F918F911F901FBEE8
:104750001F90189582E084BD93E095BD9AEF97BDB8
:1047600080936E0008952FB7F8948091CC039091B8
:10477000CD03A091CE03B091CF032FBF08952FB7E3
:10478000F8946091CC037091CD038091CE03909109
:10479000CF032FBF08959C014FB7F8948091CC03AD
:1047A0009091CD03A091CE03B091CF034FBF821B58
:1047B000930B089578941F921FB61F9211248F9324
:1047C0009F93AF93BF938091CC039091CD03A09121
:1047D000CE03B091CF030196A11DB11D8093CC03F0
:1047E0009093CD03A093CE03B093CF03BF91AF912D
:1047F0009F918F911F901FBE1F90189581E080930D
:10480000E00080E28093D8001092C9008FE19EE41E
:104810000197F1F700C0000087E090EBDC01809386
:10482000DF039093E003A093E103B093E20388E1F8
:104830009CE00FB6F894A895809360000FBE90930B
:104840006000FFCF90932D0280932C0208950C946A
:1048500074220E94680C2FEF86E791E0215080407F
:104860009040E1F700C000000E94680C80E00E94C8
:10487000D20B80FF04C00E9427240C94FE230895CD
:104880000E947A22811102C00E941E230E9485226A
:1048900080938D030E948D229093D1038093D00347
:1048A0000E948922682F70E090E080E00E94DE1F65
:1048B000609178037091790380917A0390917B03E2
:1048C0000C94182080919A030895CF93DF9300D021
:1048D0000F92CDB7DEB79091D603943019F5898346
:1048E0007B836A8382E08093E9008FEF9091E800F8
:1048F000815095FD06C095ED9A95F1F70000811164
:10490000F5CF8091E80085FF0DC050E040E063E006
:1049100070E0CE0101960E940D278091E8008E770D
:104920008093E8000F900F900F90DF91CF91089542
:10493000BC0184E00C946524BC0183E00C946524E4
:104940009C0182E08093E9009FEF8091E800915004
:1049500085FD06C085ED8A95F1F700009111F5CF30
:104960008091E80085FF0CC050E040E066E070E018
:10497000C9010E940D278091E8008E778093E8009E
:104980000895CF93DF93EC0181E08093E9008FEFEE
:104990009091E800815095FD06C095ED9A95F1F74C
:1049A00000008111F5CF8091E80085FF14C050E030
:1049B00040E068E070E0CE010E940D278091E800A1
:1049C0008E778093E80088E0FE01A2E9B3E00190D1
:1049D0000D928A95E1F7DF91CF9108958DEA9AE0E3
:1049E0000E9476068091D503811109C00E949B2800
:1049F0000E94FD288091E20084608093E200089587
:104A000089EA9AE00E9476061092D503089585EA15
:104A10009AE00C94760681EA9AE00C9476068DE989
:104A20009AE00E9476060C947B23209190032F5FDE
:104A3000822F62E30E94A62B992319F02093900302
:104A4000089510929003809191038823F1F0809152
:104A5000D6038430C1F49091E9009F702091EC005E
:104A6000822F817020FD80E8892B93E09093E900EC
:104A70009091EB0090FF04C09091EE0097FD08C06C
:104A80008F708093E9001092910308951092F100C5
:104A90009091E80095FDFACF9091E80090FFF0CF5B
:104AA0009091E8009E779093E800EACF42E061ECB5
:104AB00081E00E94172842E261EC82E00E94172800
:104AC00042E261EC83E00C9417288091D803833094
:104AD00009F45FC030F48130C1F1823009F49BC029
:104AE00008958A3009F487C08B3009F46DC089308D
:104AF00009F04EC08091D703813209F049C08091FE
:104B0000DB039091DC03029708F042C08091E8003B
:104B1000877F8093E8008091E80082FF35C0809114
:104B2000F2009091F300029729F48091F1008B7FBD
:104B3000813021F48091F10080939A038091E80004
:104B40008B778093E8000C944B288091D703813AAF
:104B5000F9F48091E800877F8093E8008091DB037F
:104B60009091DC03892B61F468E082E993E070E0C6
:104B70000E945C278091E8008B778093E80008957D
:104B800060E090E080E0F3CF8091D6038111C3CF45
:104B900008958091D703813AD9F78091DB039091F2
:104BA000DC03892BA9F78091E800877F8093E800D8
:104BB0008091E80080FFFCCF809199018093F10003
:104BC0008091E8008E77BDCF8091D703813201F7C5
:104BD0008091DB039091DC03892BD1F68091E80072
:104BE000877F8093E8000E944B288091D9038093AF
:104BF00099010C94461C8091D703813249F680912B
:104C0000E800877F8093E8000E944B288091DA03B8
:104C100080939B0308958091D703813A09F0B8CF20
:104C20008091E800877F8093E8008091E80080FF12
:104C3000FCCF80919B03C2CF9FB7F8941092910351
:104C40009FBF9091D603943009F048C02091E900AD
:104C50002F703091EC00932F917030FD90E8922BE3
:104C600023E02093E9002091EB0020FF34C0209145
:104C7000EE0027FF30C020918F03222321F02091E6
:104C8000E80025FF28C010928F0326E03091E8004D
:104C900035FF14C08093F1008091E80085FD27C0A6
:104CA0008091E80080FFFCCF8091E8008E778093B0
:104CB000E8009F709093E90080E008953091D6035A
:104CC000343049F43091EB0035FD05C0215041F4FA
:104CD00081E080938F039F709093E9008FEF089598
:104CE000EFE9FFE03197F1F700C00000CFCF8FB7B9
:104CF000F89421E0209391038FBFDBCF84B7877FA7
:104D000084BF0FB6F894A895809160008861809365
:104D10006000109260000FBE80E890E00FB6F8943B
:104D200080936100909361000FBE0E9400180E9462
:104D30009B280E94FD288091E20084608093E2001D
:104D400078940E948B2B0E940F188FE891E00E94AC
:104D500048178CE89AE00E9476060E943F180E944D
:104D60000E180E943008F9CF0C94B626292F33274D
:104D70002330310521F168F42130310509F443C0B5
:104D80002230310509F444C090E080E030E020E0BA
:104D900026C02132310551F122323105A9F76330A5
:104DA000710590F7FB01EE0FFF1FE05EFD4F2081C4
:104DB0003181635E7D4FFB01808190E010C09927B7
:104DC0008130910581F0009729F00297E9F6E1EB37
:104DD000FAE002C0EFEEFAE0849190E09F01FA0160
:104DE000318320830895EFECFAE0F6CF633071054C
:104DF00058F6660F771FFB01EA5DFD4F2081318178
:104E000089E090E0ECCF82E190E02EE43BE0E7CF58
:104E10008BE590E023EF3AE0E2CFAF92BF92CF92E2
:104E2000DF92FF920F931F93CF93DF936C01EB01FF
:104E30008A010E946A28F82E811123C001151105EC
:104E400039F0F80180819181C81BD90BC80ED91E99
:104E5000B12CA12C2097A9F08091E80085FD22C0FB
:104E60008091E8008E778093E80001151105A1F08C
:104E7000F80180819181A80EB91EB182A08285E0DF
:104E8000F82E8F2DDF91CF911F910F91FF90DF9022
:104E9000CF90BF90AF9008950E946A288823D1F2E6
:104EA000F82EEFCFF60181916F018093F1002197E9
:104EB000FFEFAF1ABF0ACECFFC018091DD039091C6
:104EC000DE0386179707A0F06115710529F490910C
:104ED000E8009E779093E80090E06115710551F429
:104EE000911108C08091E80082FF33C080E00895EE
:104EF000BC01F2CF8091D6038823B9F18530B9F196
:104F00008091E80083FD2FC08091E80082FDEACF08
:104F10008091E80080FFE1CF2091F2003091F30012
:104F20006115710519F02830310558F091E02830ED
:104F3000310509F090E02091E8002E772093E800F9
:104F4000CCCF81918093F100615071092F5F3F4F69
:104F5000E7CF8091D603882341F0853041F08091DE
:104F6000E80083FFBFCF81E0089582E0089583E0E9
:104F70000895FC018091DD039091DE038617970769
:104F8000A0F06115710529F48091E8008E77809377
:104F9000E80090E06115710551F4911108C080910D
:104FA000E80082FF34C080E00895BC01F2CF809118
:104FB000D6038823C1F18530C1F18091E80083FDDB
:104FC00030C08091E80082FDEACF8091E80080FF48
:104FD000E1CF2091F2003091F3006115710519F0D5
:104FE0002830310558F091E02830310509F090E083
:104FF0008091E8008E778093E800CCCF84918093F5
:10500000F1003196615071092F5F3F4FE6CF8091DB
:10501000D603882341F0853041F08091E80083FF7A
:10502000BECF81E0089582E0089583E00895982F2F
:10503000973028F08F708093E90081E00895909375
:10504000E900242F762F50E0981731F07091EC0092
:105050002091ED005091F00021FD02C09F5FE8CF4C
:105060003091EB003E7F3093EB003091ED003D7FBF
:105070003093ED003091EB0031603093EB00709392
:10508000EC002093ED005093F0002091EE0027FDFE
:10509000E5CF80E008958091D70387FF13C080910A
:1050A000E80082FF06C08091E8008B778093E800DB
:1050B00004C08091D6038111F2CF08958091D60368
:1050C0008823D9F38091E80080FFF8CF8091E80031
:1050D0008E77ECCF2091E4003091E50095E6A901B0
:1050E0002091EC00822F817020FF06C08091E800A3
:1050F00080FF06C080E008952091E80022FD1AC0DC
:105100008091D603882389F0853089F08091EB0067
:1051100085FD0FC02091E4003091E5004217530750
:10512000F9F29150E1F684E0089582E0089583E079
:10513000089581E008950E940C290E941429E0EE50
:10514000F0E0808181608083E8EDF0E080818F77FE
:10515000808319BCA7EDB0E08C918E7F8C93808109
:105160008F7E80831092D50308950F931F93CF9362
:10517000DF930E940C290E941429C8EDD0E0888199
:105180008F77888388818068888388818F7D8883F2
:10519000E7EDF0E080818068808319BC1092D6032F
:1051A0001092D2031092D4031092D30300EE10E0B9
:1051B000F80180818B7F808388818160888342E0D1
:1051C00060E080E00E941728E1EEF0E080818E7FB1
:1051D0008083E2EEF0E0808181608083808188605E
:1051E0008083F80180818E7F8083888180618883BD
:1051F000DF91CF911F910F910895E8EDF0E080814C
:105200008F7E8083E7EDF0E080818160808381E0A4
:105210008093D5030C94B528E8EDF0E080818C7F75
:1052200080831092E20008951092DA001092E1005B
:1052300008951F920F920FB60F9211240BB60F9282
:105240002F933F934F935F936F937F938F939F938E
:10525000AF93BF93EF93FF938091E10082FF0BC068
:105260008091E20082FF07C08091E1008B7F8093F4
:10527000E1000E9415258091DA0080FF19C080911D
:10528000D80080FF15C08091DA008E7F8093DA000D
:105290008091D90080FF98C084E189BD86E189BDF5
:1052A00009B400FEFDCF81E08093D6030E94EE2476
:1052B0008091E10080FF19C08091E20080FF15C05D
:1052C0008091E2008E7F8093E2008091E200806115
:1052D0008093E2008091D80080628093D80019BC4E
:1052E00085E08093D6030E940B258091E10084FF26
:1052F0002BC08091E20084FF27C084E189BD86E154
:1053000089BD89B5982F917080FFFBCF8091D8001F
:105310008F7D8093D8008091E1008F7E8093E100A3
:105320008091E2008F7E8093E2008091E2008160B4
:105330008093E2008091D203882309F44BC084E07B
:105340008093D6030E940F258091E10083FF29C03E
:105350008091E20083FF25C08091E100877F8093E8
:10536000E10082E08093D6031092D2038091E100A5
:105370008E7F8093E1008091E2008E7F8093E20037
:105380008091E20080618093E20042E060E080E092
:105390000E9417288091F00088608093F0000E949E
:1053A0000725FF91EF91BF91AF919F918F917F91D1
:1053B0006F915F914F913F912F910F900BBE0F9086
:1053C0000FBE0F901F90189519BC1092D6030E9423
:1053D00000256ECF8091E30087FD93E09093D60384
:1053E000B1CF1F920F920FB60F9211240BB60F92EE
:1053F0002F933F934F935F936F937F938F939F93DD
:10540000AF93BF93CF93DF93EF93FF93D091E900D6
:10541000DF708091EC00C82FC17080FDC0E8109251
:10542000E9008091F000877F8093F00078940E94DB
:10543000392A1092E9008091F00088608093F00092
:10544000CD2BCF70C093E900FF91EF91DF91CF9109
:10545000BF91AF919F918F917F916F915F914F918C
:105460003F912F910F900BBE0F900FBE0F901F908A
:1054700018951F93CF93DF93CDB7DEB7AA970FB6DA
:10548000F894DEBF0FBECDBF87ED93E02091F10011
:10549000FC012193CF01F3E08F3D9F07B9F70E94F4
:1054A00065258091E80083FF1EC18091D70390910C
:1054B000D8039A3008F017C1E92FF0E0EF57F34D09
:1054C0000C94E82B803899F0823809F00CC1809157
:1054D000DB038F70873008F006C18093E90080916C
:1054E000EB0085FB882780F91092E90006C08091C7
:1054F000D3039091D403911182609091E800977F3B
:105500009093E8008093F1001092F1008091E80000
:105510008E77E5C0882309F4D3C0823009F0E3C058
:105520008091D9038111D6C08091DB038F702FEF5A
:10553000280F263008F0D7C08093E9002091EB00B7
:1055400020FFC8C0933031F48091EB0080628093DB
:10555000EB00C0C09091EB0090619093EB0021E0D4
:1055600030E001C0220F8A95EAF72093EA001092FA
:10557000EA008091EB008860EACF8111B4C01091FD
:10558000D9031F778091E3008078812B8093E3001B
:105590008091E800877F8093E8000E944B288091EB
:1055A000E80080FFFCCF8091E30080688093E300F7
:1055B00082E0111183E08093D60395C08058823039
:1055C00008F091C08091D9039091DA038C3D23E0DB
:1055D0009207A1F583E08A838AE289834FB7F89422
:1055E000DE01139620E03EE051E2E32FF0E050931D
:1055F0005700E49120FF03C0E295EF703F5FEF702A
:105600008E2F90E0EA30C0F0C7968D939D932F5F68
:10561000243159F74FBF8091E800877F8093E800DD
:105620006AE270E0CE0101960E945C278091E8005A
:105630008B778093E80057C0C096E7CF6091DB037B
:105640007091DC03AE014F5F5F4F0E94B426BC0136
:10565000892B09F448C09091E800977F9093E80067
:1056600089819A810E94B927E1CF8038E1F5809144
:10567000E800877F8093E8008091D2038093F10057
:1056800045CF811130C09091D903923060F580915F
:10569000E800877F8093E8009093D2030E944B2814
:1056A0008091D203882311F084E005C08091E3004B
:1056B00087FDFACF81E08093D6030E94562513C060
:1056C0008091D903813079F481E0933009F080E052
:1056D0008093D4031092E9008091E800877F809343
:1056E000E8000E944B288091E80083FF0AC0809167
:1056F000E800877F8093E8008091EB0080628093D0
:10570000EB00AA960FB6F894DEBF0FBECDBFDF91B7
:10571000CF911F910895CF938091D6038823A1F054
:10572000C091E900CF709091EC00892F817090FDBD
:1057300080E8C82B1092E9008091E80083FD0E9468
:10574000392ACF70C093E900CF910895991B79E071
:1057500004C0991F961708F0961B881F7A95C9F701
:105760008095089597FB072E16F4009407D077FDD7
:1057700009D00E94FC2B07FC05D03EF49095819542
:105780009F4F0895709561957F4F0895A1E21A2E5D
:10579000AA1BBB1BFD010DC0AA1FBB1FEE1FFF1FD5
:1057A000A217B307E407F50720F0A21BB30BE40B25
:1057B000F50B661F771F881F991F1A9469F760956C
:1057C0007095809590959B01AC01BD01CF01089526
:1057D000EE0FFF1F0024001C0BBE0790F691E02D7A
:1057E00009940E94102CA59F900DB49F900DA49F2A
:1057F000800D911D11240895AA1BBB1B51E107C008
:10580000AA1FBB1FA617B70710F0A61BB70B881F50
:10581000991F5A95A9F780959095BC01CD010895DF
:10582000A29FB001B39FC001A39F700D811D1124E1
:10583000911DB29F700D811D1124911D0895F9993C
:10584000FECF92BD81BDF89A992780B50895A8E151
:10585000B0E042E050E00C94532C262FF999FECF93
:1058600092BD81BDF89A019700B4021639F01FBAB3
:1058700020BD0FB6F894FA9AF99A0FBE08950396D0
:10588000272F0E942E2C0E942D2C252F0E942E2C7B
:10589000242F0C942E2C0196272F0E942E2C0C9432
:1058A0002D2CDC01CB01FC01F999FECF06C0F2BD25
:1058B000E1BDF89A319600B40D9241505040B8F7CE
:1058C0000895F894FFCF0F1A0F1A671A671AB91ABA
:1058D000D51A3C1A3C1AE01A6C1B7B1B7B1BD71B8E
:1058E0003C1A3C1AE01B551C551C5E1C5E1C601CBF
:1058F0005E1C5E1C5E1C551C551C651C5E1C5E1CE3
:10590000651C622A8A2A732B8A2A732BBD2ADE2AF7
:06591000732B352B412B27
:10591600FF4500505152535455565758590E1C2C9A
:105926003B470000000000000102030405060708CB
:10593600090A0B0C4146465F405C5D4A0042101165
:1059460012131415161718191A1B44465A5B3D3EB6
:105956003F5E0062202122232425262728292A4467
:10596600000000002D2E2F0000600D31323334353B
:10597600363738393A6100004C001D1E1F4300635C
:10598600646600000040000000406765634F4D4EAE
:105996000F003C00002808641E140A321E820362AF
:1059A60024C124A0249C24982401E200E900EA00F2
:1059B600B500B600B700CD008301CC008A01920184
:1059C60094012102230224022502260227022A022A
:1059D600B300B4006F007000818283F0F1F2606161
:1059E60062636465666730313290339134923593E1
:1059F600369401020304050607080900E200E900DF
:105A0600EA00B500B600B700CD008301CC008A01DC
:105A16009201940121022302240225022602270272
:105A26002A02B300B4006F007000818283407B229B
:0C5A3600FD0B820B600B050B1E0B370BE9
:00000001FF
